00020018133                BALIZA 12V GIRATORIA P/ATORNILLAR  0000042937
0002001AF124-C             FARO HALOGENO REDONDO 24V CRISTAL  0000046518
0002001AF125-C             FARO HALOGENO REDONDO 12V CRISTAL  0000042689
0002001AF412               BALIZA ELECTRONICA 48 LEDS 12V     0000209478
0002001AFA700-R            COLGANTE C/MOD Y OJO DE GATO ROJO  0000012346
0002001AFA700-V            COLGANTE C/MOD Y OJO DE GATO VERDE 0000012346
0002001AFA800              REDONDO BICOLOR 110mm              0000017178
0002001AFA800V             REDONDO BICOLOR 110mm.C/VENT       0000019989
0002001AFA900-R            REDONDO 100mm-ROJO                 0000017853
0002001AFA900B             TRASERO BIPOLAR PORTALAMP BAYONETA 0000017853
0002001AFA910-AZ           REDONDO 100mm C/SOPORTE-AZUL       0000017766
0002001AFA910N-A           F.UNIV. CUERPO/SOPORTE NEGRO AMBAR 0000017766
0002002AF2515C-A           ESTRIVERO 5 RAYOS CROMADO          0000017602
0002002AF2515C-C           ESTRIBERO 5 RAYOS CROMADO CRISTAL  0000017602
0002002AF2515C-R           ESTRIBERO 5 RAYOS CROMADO ROJO     0000017602
0002002AF2515C-V           ESTRIBERO 5 RAYOS CROMADO VERDE    0000017602
0002002AF3001              RECT TRASERO 95 x 185.ROJO-AMBAR   0000025934
0002002AF3001E             LUZ DE TECHO C/2 TUBOS Y LLAVE     0000081380
0002002AF3002-CRA          RECTANG TRIPLE 3 PORTALAM C-R-A    0000022784
0002002AF3002-RRA          RECTANG TRIPLE 3 PORTALAM R-R-A    0000022784
0002002AF3003-A            FARO UNIV C/2PORTALAMP AMBAR       0000007958
0002002AF3003-AZ           FARO UNIV C/2 PORTALAMP AZUL       0000007958
0002002AF3003-C            FARO UNIV C/2 PORTALAMP CRISTAL    0000007958
0002002AF3003-R            FARO UNIV C/2 PORTALAMP ROJO       0000007958
0002002AF3003-V            FARO UNIV. C/2 POTALAMP VERDE      0000007958
0002002AF3040              PLAFON PLAST C/GUARNI C/LLAVE      0000021724
0002002AF711-A             RECTANGULAR 57 x 95 mm-AMBAR       0000006525
0002002AF711-C             RECTANGULAR 57 x 95 mm CRISTAL     0000006525
0002002AF711-R             RECTANGULAR 57 x 95 mm ROJO        0000006525
0002002AF711-V             RECTANGULAR 57 x 95 mm VERDE       0000006525
0002002AF711D              RECT FLEX DOBLE-ROJO-AMBAR         0000019401
0002002AF711P              PLAFONIER AUSILI                   0000009045
0002002AF760TD             TRASERO DERECHO RENAULT MIDLUM     0000113472
0002002AF760TI             TRASERO IZQ RENAULT MIDLUM         0000113472
0002002AF770TD             TRASERO DERECHO RENAULT PREMIUM    0000177407
0002002AF770TI             TRASERO IZQUIERDO RENAULT PREMIUM  0000177407
0002002AF778-A             SAFARI 9x9 AMBAR                   0000005821
0002002AF778-AZ            SAFARI 9x9 AZUL                    0000005821
0002002AF778-C             SAFARI 9x9 CRISTAL                 0000005821
0002002AF778-R             SAFARI 9x9 ROJO                    0000005821
0002002AF778-V             SAFARI 9x9 VERDE                   0000005821
0002002AF850               REDONDO BICOLOR 140mm              0000019318
0002002AF850V              REDONDO BICOLOR 140mm.C/VENT       0000022247
0002002AF860               LENTE FRANJAS HORIZ. PORT.BAYON.PLA0000019318
0002002AF860T              TRAS FRANJA HORIZ TRICOLOR         0000019589
0002004AF8000              TRASERO IVECO 4 PORTALAMP          0000072845
0002004AF8004              TRASERO DAILY y TURBO DAILY        0000053301
0002004AF8006              FARO TRASERO IVECO DAILY NUEVA     0000078879
0002004AF8008              TRAS EUROCARGO,EUROTRAKER,DAILY    0000071746
0002004AF8009D             FARO VISERA STRALIS DERECHO        0000044226
0002004AF8009I             FARO VISERA STRALIS IZQUIERDO      0000044226
0002004AF8010D             TRASERO DERECHO IVECO 2008         0000087016
0002004AF8010I             TRASERO IZQUIERDO IVECO 2008       0000087016
0002004AFA8010D            TRASERO EUROCARGO 2008-DER         0000087016
0002004AFA8010I            TRASERO EUROCARGO 2008-IZQ         0000087016
0002005AF1136              FARO LATERAL VW C/PORTALAM EXTERNO 0000013736
0002005AF14000             TRASERO F CARGO,VW,DEUTZ           0000049381
0002005AF14000V            TRASERO F CARGO,VW,DEUTZ.V/VENT    0000049381
0002005AF14005             FARO PARAGOLPE CARGO               0000012950
0002005AF1404              FARO LATERAL TIPO VW NUEVO         0000028384
0002005AF1423              D.FAZ CUAD. FORD CARGO NACIONAL    0000040421
0002005AF1462              FARO POSICION DE CABINA CAMIONES   0000015591
0002005AFA1169             DELANTERO CAMION VW CRISTAL D/I    0000028132
0002005AFA1404D            DELANT GIRO LATERAL VW-DER         0000028384
0002005AFA1404I            DELANT GIRO LATERAL VW-IZQ         0000028384
0002005AFA1423             DOBLE FAZ CUADRADO FORD CARGO      0000040421
0002005AFA1428C            DE TECHO FORD CARGO-VW-CENTRAL     0000035645
0002005AFA1428D            DE TECHO FORD CARGO-DER            0000035645
0002005AFA1428I            DE TECHO FORD CARGO-IZQ            0000035645
0002005AFA940.1DA          F CARGO.GIRO DELANT DER AMBAR      0000039517
0002005AFA940.1DC          F CARGO.GIRO DELANT DER CRISTAL    0000039517
0002005AFA940.1IA          F CARGO.GIRO DELANT IZQ AMBAR      0000036931
0002005AFA940.1IC          F CARGO.GIRO DELANT IZQ CRISTAL    0000036931
0002007AF1024              EXTERIOR CABINA 87->               0000013202
0002007AF1052D             FARO POS.DELANT.MB AXOR DER.       0000056736
0002007AF1052I             FARO POS.DELANT.MB AXOR IZQ.       0000056736
0002007AF1054              FARO LATERAL MB.AXOR               0000118282
0002007AF1057D             FARO TECHO ACCELO-ATEGO-AXOR DER.  0000047935
0002007AF1057I             FARO TECHO ACCELO-ATEGO-AXOR IZQ.  0000047935
0002007AF1058D             FARO LATERAL MB.ATEGO              0000047526
0002007AF1058I             FARO LATERAL MB.ATEGO              0000047526
0002007AF1078D             FARO GIRO ATEGO CRISTAL ACR. DER.  0000079211
0002007AF1078I             FARO GIRO ATEGO CRISTAL ACR.IZQ.   0000079211
0002007AF1191A             FARO TRAS.ACRIL.RANDON 2004        0000033790
0002007AF1191R             FARO.TRAS.ACRIL.RANDON 2004        0000033790
0002007AF1214D             FARO DERECHO                       0000031193
0002007AF1214I             FARO IZQUIERDO                     0000031193
0002007AF1215              GIRO DELANTERO 87 EN ADELANTE      0000012950
0002007AF1245              G/BARRO MB 1517/1518.SCANIA 111    0000017613
0002007AF1250-A            CABINA 1526 AMBAR                  0000011693
0002007AF1250-C            CABINA 1526 CRISTAL                0000011693
0002007AF1250-R            CABINA 1526 ROJO                   0000011693
0002007AF1250-V            CABINA 1526 VERDE                  0000011693
0002007AF1255DD            DEL DER 1215 87 EN ADELANTE        0000039825
0002007AF1255DI            DEL IZQ 1215 87 EN ADELANTE        0000039825
0002007AF1256              FARO DOBLE FAZ GUARDABARRO 1526    0000025523
0002007AF1517              M BENZ 1517                        0000034692
0002007AF1517P             FARO PLAFON MB VIEJOS              0000046866
0002007AF1517V             M BENZ 1517 C/VENT                 0000037247
0002007AF1526              M BENZ 3 PORTALAMP                 0000034603
0002007AF1526T             M BENZ TRICOLOR                    0000036322
0002007AF1526TV            M BENZ TRICOLOR C/VENT             0000038833
0002007AF1526V             M BENZ 3 PORTALAMP C/VENT          0000037296
0002007AF1550              TRASERO 11x42 4 PORTALAMP          0000073584
0002007AF1550V             TRASERO 11x42 4 PORTALAMP C/VENT   0000073584
0002007AF1560              TRASERO 11x42 4 PORTAL C/CONEC ORIH0000092852
0002007AF1560V             TRAS 11X42 4 PORTAL C/CONEC ORIG VE0000092852
0002007AF1580TD            FARO TRASERO DERECHO MB AXOR       0000186208
0002007AF1580TI            FARO TRASERO IZQUIERDO MB AXOR     0000196895
0002007AF608-A             FARO LATERAL MB608-AMBAR           0000011096
0002007AF660DD             FARO POS.Y GIRO MB ACCELO Y FAVORIT0000134155
0002007AF660DI             FARO POS.Y GIRO MB ACECELO Y FAVORI0000134155
0002007AF675D              FARO DEL.GIRO MB.1938/1944 DERECHO 0000114730
0002007AF675I              FARO DEL.GIRO MB 1938/1944 IZQ.    0000114730
0002007AF710DD             FARO DELANTERO TROMPA MB710 DERECHO0000035236
0002007AF710DI             FARO DELANTERO TROMPA MB710 IZQUIER0000035236
0002007AFA1052DI           FARO POSICION DELANERO IZQ MB AXOR 0000056736
0002007AFA1058D            FARO LATERAL DERECHO MB ATEGO      0000056736
0002007AFA1058I            FARO LATERAL IZQ MB ATEGO          0000047526
0002008AF1146-A            RED LATERAL 90mm-AMBAR             0000013705
0002008AF1146-R            RED LATERAL 90mm-ROJO              0000013705
0002008AF1146-V            RED LATERAL 90mm-VERDE             0000013705
0002008AF1192              TRASERO ACRILICO RANDON BICOLOR    0000033790
0002008AF1254-A            TRASERO 3 PORTALAMP AMBAR          0000028981
0002008AF1254-R            TRASERO 3 PORTALAMP ROJO           0000028981
0002008AF2514-A            RED 100mm 1/2 REJA.AMBAR           0000011630
0002008AF2514-AZ           RED 100mm 1/2 REJA-AZUL            0000011630
0002008AF2514-C            RED 100mm 1/2 REJA-CRISTAL         0000011630
0002008AF2514-R            RED 100mm 1/2 REJA-ROJO            0000011630
0002008AF2514-V            RED 100mm 1/2 REJA-VERDE           0000011630
0002008AF2514C-A           FARO ESTRIBERO 3 RAYOS CROMADO AMBA0000017602
0002008AF2514C-R           FARO ESTRIBERO 3 RAYOS CROMADO ROJO0000017602
0002008AF2515-A            RED 100mm REJA-AMBAR               0000011630
0002008AF2515-AZ           RED 100mm REJA-AZUL                0000011630
0002008AF2515-C            RED 100mm REJA-CRISTAL             0000011630
0002008AF2515-R            RED 100mm REJA-ROJO                0000011630
0002008AF2515-V            RED 100mm REJA-VERDE               0000011630
0002008AF2516-A            RED 100mm SIN REJA-AMBAR           0000011630
0002008AF2516-AZ           RED 100mm SIN REJA-AZUL            0000011630
0002008AF2516-C            RED 100mm SIN REJA-CRISTAL         0000011630
0002008AF2516-R            RED 100mm SIN REJA-ROJO            0000011630
0002008AF2516-V            RED 100mm SIN REJA-VERDE           0000011630
0002008AFA1142-A           REDONDO P/FARO 1147-AMBAR          0000033790
0002008AFA1142-R           REDONDO P/FARO 1147-ROJO           0000033790
0002008AFA1144             REDONDO P/FARO 1147-BICOLOR        0000033790
0002008AFA1147D            TRAS COMPETO LINEA 2000-DER        0000247187
0002008AFA1147I            TRAS COMPLETO LINEA 2000-IZQ       0000247187
0002008AFA1189D            TRAS COMPLETO LINEA 2004-DER       0000247187
0002008AFA1189I            TRAS COMPLETO LINEA 2004-IZQ       0000247187
0002008AFA1191E-A          FARO 48 LEDS 135 MM DIAM. AMBAR    0000155687
0002008AFA1191E-C          FARO 48 LEDS 135 MM DIAM. CRISTAL  0000155687
0002008AFA1191E-R          FARO 48 LEDS 135 MM DIAM.          0000155687
0002009AF112               TRASERO DER/IZQ CAMION 112         0000062966
0002009AF112/3DD           DEL DER CAMION 112 y 113           0000046772
0002009AF112/3DI           DEL IZQ CAMION 112 y 113           0000046772
0002009AF114DD             FARO DEL.DER.SCANIA SERIE 4        0000072327
0002009AF114DI             FARO DEL. IZQ. SCANIA SERIE 4      0000072327
0002009AF243D              FARO TECHO SCANIA 112/113 DER      0000018923
0002009AF243I              FARO TECHO SCANIA 112/113 IZQ      0000018923
0002009AF701D              DEL.POSIC.Y GIRO VOLVO NH10 DERECHO0000100114
0002009AF701I              DEL.POSIC.Y GIRO VOLVO NH10 IZQUIER0000100114
0002009AF702D              TRASERO VOLVO NH10 DERECHO PLASTICO0000131043
0002009AF702I              TRASERO VOLVO NH10 IZQUIERDO PLAST 0000131043
0002009AF704D              FARO DE GIRO FH 16 DERECHO         0000079494
0002009AF704I              FARO DE GIRO FH 16 IZQUIERDO       0000079494
0002009AFA113TD            TRAS DER CAMION 113                0000061559
0002009AFA113TI            TRAS IZQ CAMION 113                0000071622
0002009AFA114TD            TRAS.DER. ACRILICO 7 PORTALAMP     0000137487
0002009AFA114TI            TRAS.IZQ. ACRILICO 7 PORTALAMP     0000137487
0002009AFA115D             DELANTERO SERIE 5 IZQ/DER          0000176369
0002009AFA115TD            FARO TRASERO DERECHO SCANIA S4 09  0000199756
0002009AFA115TI            FARO TRASERO IZQ SCANIA S4 09      0000204628
0002009G110                GUIA LATERAL DE PARAGOLPE          0000008059
0002010ALA113TD            PARA FARO 113TD                    0000024088
0002010ALA113TI            PARA FARO 113TI                    0000029343
0002010ALA114              PARA FAROS 114                     0000030245
0002010ALA115TD            LENTE P/FARO 115T SERIE 4 "09      0000075439
0002010ALA115TI            LENTE P/FARO 115T SERIE 4 "09      0000075439
0002010ALA3030-A           PARA FARO 3030/3100/4100-AMBAR     0000005363
0002010ALA3030-C           PARA FARO 3030/3100/4100-CRISTAL   0000005363
0002010ALA3030-R           PARA FARO 3030/3100/4100-ROJO      0000005363
0002010ALA800              PARA FARO 800                      0000007106
0002010ALA910-A            PARA FARO 910/900 AMBAR            0000003580
0002011AL112/3DD           PARA FARO 112/3DD                  0000020274
0002011AL112/3DI           PARA FARO 112/3DI                  0000020274
0002011AL1146-A            LENTE LATERAL RANDON 2000 AMBAR    0000003395
0002011AL1146-R            LENTE LATERAL RANDON 2000 ROJO     0000003395
0002011AL1245              PARA FARO 1245                     0000004024
0002011AL1250-A            PARA FARO 1250-AMBAR               0000004212
0002011AL1250-AZ           PARA FARO 1250-AZUL                0000004212
0002011AL1250-C            PARA FARO 1250-CRISTAL             0000004212
0002011AL1250-R            PARA FARO 1250-ROJO                0000004212
0002011AL1250-V            PARA FARO 1250-VERDE               0000004212
0002011AL1254-A            PARA FARO 1254-AMBAR               0000005406
0002011AL1254-R            PARA FARO 1254-ROJO                0000005406
0002011AL14000             PARA FARO 14000                    0000018105
0002011AL1515-A            PARA FARO 2514/15/16-AMBAR         0000003709
0002011AL1515-AZ           PARA FARO 2514/15/16-AZUL          0000003709
0002011AL1515-C            PARA FARO 2514/15/16-CRISTAL       0000003709
0002011AL1515-R            PARA FARO 2514/15/16-ROJO          0000003709
0002011AL1515-V            PARA FARO 2514/15/16-VERDE         0000003709
0002011AL1517              PARA FARO 1517                     0000009069
0002011AL1526              PARA FARO 1526                     0000009211
0002011AL1526T             PARA FARO 1526T                    0000011985
0002011AL1550              PARA FARO 1550                     0000019172
0002011AL1580D             LENTE P/FARO 1580 MB AXOR DERECHO  0000052681
0002011AL1580I             LENTE P/FARO 1580 MB AXOR IZQUIERDO0000052681
0002011AL201-A             PARA FARO 201-AMBAR                0000002246
0002011AL201-R             PARA FARO 201-ROJO                 0000002246
0002011AL202-7-R           PARA FARO 202-7 ROJO               0000001929
0002011AL202-7-V           PARA FARO 202-7 VERDE              0000001929
0002011AL203/16-A          P/FARO TRAS. MONTENEGRO AMBAR      0000003888
0002011AL203/16-R          P/FARO TRAS. MONTENEGRO M80 ROJO   0000003888
0002011AL204D              PARA FARO 204-17D                  0000016348
0002011AL204I              PARA FARO 204-17I                  0000016348
0002011AL205-A             PARA FARO 205-19 AMBAR             0000004264
0002011AL205-R             PARA FARO 205-19 ROJO              0000004264
0002011AL3001              PARA FARO 3001                     0000008148
0002011AL3003-A            LENTE UNIV POLICARB. FARO 3003 AMBA0000001720
0002011AL3003-AZ           PARA FARO 3003 AZUL                0000001720
0002011AL3003-C            PARA FARO 3003 CRISTAL             0000001720
0002011AL3003-R            LENTE UNIV.POLICARB.FARO 3003 ROJO 0000001720
0002011AL3003-V            LENTE UNIV.POLICARB. FARO 3003 VERD0000001720
0002011AL608-A             PARA FARO 608 AMBAR                0000004212
0002011AL608-R             PARA FARO 608 ROJO                 0000004212
0002011AL702               PARA FARO 702                      0000051738
0002011AL705               LENTE P/ FARO 705                  0000057836
0002011AL711-A             PARA FARO 711-AMBAR                0000001850
0002011AL711-AZ            PARA FARO 711-AZUL                 0000001850
0002011AL711-C             PARA FARO 711-CRISTAL              0000001850
0002011AL711-R             PARA FARO 711-ROJO                 0000001850
0002011AL711-V             PARA FARO 711-VERDE                0000001850
0002011AL760               LENTE PARA FARO 760                0000054096
0002011AL770               LENTE PARA FARO 770                0000089332
0002011AL778-A             PARA FARO 778-AMBAR                0000001693
0002011AL778-AZ            PARA FARO 778-AZUL                 0000001693
0002011AL778-C             PARA FARO 778-CRISTAL              0000001693
0002011AL778-R             PARA FARO 778-ROJO                 0000001693
0002011AL778-V             PARA FARO 778-VERDE                0000001693
0002011AL8000/1            PARA FARO 8000 GRANDE-ROJO         0000010955
0002011AL8000/2-A          PARA FARO 8000 CHICO-AMBAR         0000005411
0002011AL8000/2-C          PARA FARO 8000 CHICO-CRISTAL       0000005411
0002011AL8004D             PARA FARO 8004 DERECHO             0000026636
0002011AL8004I             PARA FARO 8004 IZQUIERDO           0000026636
0002011AL8006              LENTE FARO 8006 NUEVA DAYLI 2009   0000029343
0002011AL8008              PARA FARO 8008                     0000044377
0002011AL850               PARA FARO 850                      0000007434
0002011AL860               LENTE PARA FARO 860                0000007434
0002011ALA8010             IVECO EUROCARGO 2008 TRASERO       0000032553
0002012AF3030-A            FARO HELVETICA AMBAR               0000018717
0002012AF3030-R            HELVETICA ROJO                     0000018717
0002012AF3100-ACR          TRASERO 4 PORTALAM A-C-R           0000041362
0002012AF3100-RRA          TRASERO 4 PORTALAM R-R-A           0000041362
0002012AF4100              TRASERO ACRILICO 4 PORTLA BAYONETA 0000061095
0002013AF100               5 3/4".CHAPA.A/GOMA.PT43/45.NEGRO  0000074088
0002013AF101               5 3/4" CHAPA.A/GOMA.PT43/45.NARANJA0000068885
0002013AF200               7" CHAPA A/GOMA.PT43/45.NEGRO      0000011058
0002013AF201               7" CHAPA.A/GOMA.PT43/45.NARANJA    0000030762
0002014AF201-1A            FARO TRASERO REDONDO 1 POLO AMBAR  0000030762
0002014AF201-1R            FARO TRASERO REDONDE 1 POLO ROJO   0000030762
0002014AF201-3R            MONTENEGRO TRAS REDONDO 2 POLOS    0000030762
0002014AF202-7-R           FARO POSICION ROJO                 0000015177
0002014AF203/14-A          FARO TRASERO M80 1 POLO AMBAR      0000029047
0002014AF203/14-R          FARO TRASERO M80 1 POLO ROJO       0000029047
0002014AF204-17D           TRASERO M85 DERECHO                0000088306
0002014AF204-17I           TRASERO M85 IZQUIERDO              0000088306
0002014AF205-19A           FARO TRASERO M85 1 POLO AMBAR      0000032014
0002014AF205-19R           FARO TRASERO M85 1 POLO ROJO       0000032014
000201515/2                TAZA A ROSCA CON JUNTA Y TAPON     0000014288
000201547/34               TAZA A PRESION C/JUNTA Y TAPON     0000014722
000201556/06               BUJE CILINDRICO NYLON              0000004946
00020161008R               EUROTRAKKER JUEGO FARO PRINCIPAL   0000058061
00020161010R               FARO AUX EUROTRAKKER/EUROTECH JGO  0000032610
00020161018R               EUROTECH JUEGO FARO PRINCIPAL      0000059988
0002017AF501               7" UNIVERSAL C/CAPUCHON.PT43       0000003990
0002017AF502               5 3/4" UNIVERS C/CAPUCHON.PT43     0000003576
0002018AF1249AP            B.CHAPA/C.PLAST/PORTALAMP BAYONETA 0000010090
0002018AFA781AP            BASE PLASTICA/PORTALAMP. BAYONETA  0000007958
000201901011               JGO VENTILETE DUNA-UNO-FIORINO     0000058858
000201901011A              JGO VENTILETE DUNA-UNO-FIOR-ADESHIV0000067611
000201901014               JGO VENTILETE SIENA/PALIO 4 PUERTAS0000058858
000201901020               JGO VENTILETE F. UNO 3 PUERTAS     0000066016
000201901022               JGO VENTILETE FIAT PALIO 3 PUERTAS 0000066016
000201901200               JGO VENTILETE ACRIL SPRINTER       0000035790
000201901200E              JGO VENTIL ACRIL ENVOLVENTE SPRINTE0000063631
000201901308               JGO VENTILETE COURRIER/FIESTA 4P   0000058858
000201901602               JGO VENTILETE R9-R11               0000058858
000201901603               JGO VENTILETE R19-COLISA           0000058858
000201901603A              JGO VENTILETE R19-ADHESIVO 3M      0000067611
000201901606               JGO VENTILETE ACRIL REN CLIO 2 PTAS0000064470
000201901607               JGO VENTIL ACRIL CLIO 2/4P NVO.    0000058858
000201901608               JGO VENTIL REN CLIO-2 2 PTAS       0000071588
000201901702               JGO VENTIL ACRIL PEUGEOT PARTNER   0000059988
000201901705               JGO VENTILETE PEUGEOT 206 3 PTAS   0000069991
000201901706               JO VENTILETE ACRILICO P206 5P      0000058858
000201901800               JGO VENT ACRIL VW POLO/CADDY SEAT  0000059988
000201901803               JGO VENTILETE VW GOL 3P MOD.NVO.   0000069991
000201901804               JGO VENTILETE ACRIL GOL 4 PTAS UNVO0000058858
000201902109               JGO VENTIL TOYOTA NVA.05 DELANTERO 0000058858
0002020AF-160              CIMBEL LIBRE CON LAMPARA 10 W      0000027218
0002020TAXI-A              TAXI/REMIS AMARILLO DOBLE PORTALAM 0000029004
0002021AF3003E-A           4 LEDS POLICARB. INT. METAL AMBAR  0000024769
0002021AF3003E-C           4 LEDS POLICARB. INT. METAL CRISTAL0000024769
0002021AF3003E-R           4 LEDS POLICARB. INT. METAL ROJO   0000024769
0002021AF3333E-A           FARO REDONDO P/EMBUTIR ELECT. AMBAR0000162068
0002021AF3333E-C           FARO REDONDO P/EMBUTIR ELECT. CRIST0000162068
0002021AF3333E-R           FARO REDONDO P/EMBUTIR ELECT. ROJO 0000162068
0002021TL215               EQUIPO  12V ELECTRON. 12 LEDS SMD  0000038915
0002021TL225               EQUIPO 12V ELECTRON. 24 LEDS SMD   0000057091
0002021TL235               EQUIPO 12V ELECTRON. 36 LEDS SMD   0000075141
0002022AF1307R             FORD CARGO OPTICA RECTANGULAR      0000029969
0002022AF1307RG            FORD CARGO RECTANGULAR             0000025073
0002022AF1350R             FORD CARGO REDONDO                 0000044495
0002022AF1360R             FORD CARGO L/N                     0000033032
0002022AF1370R             FORD CARGO LINEA NUEVA 2011        0000042359
0002022AF1870R             VW CONTELLATION                    0000022725
0002022AF1880R             VW CONSTELLATION                   0000026827
0002022AF1890R             VW CONSTELLATION                   0000029092
0002023AF1176-A            FARO TECHO MARCO POLO VIEJO AMBAR  0000014145
0002023AF1176-C            FARO TECHO MARCO POLO VIEJO CRISTAL0000014145
0002023AF1176-R            FARO TECHO MARCO POLO ROJO         0000014145
000300116001               EMERG DIESEL (+)                   0000006709
000300116002               EMERG DIESEL (-)                   0000006709
000300116011               EMERG NAFTERO (+)                  0000005031
000300116012               EMERG NAFTERO (-)                  0000005031
000300116021               DIESEL TORNILLO "L" (+)            0000009634
000300116022               DIESEL TORNILLO "L" (-)            0000009634
000300116041               EMERG DIESEL PESADO 90mm (+)       0000010617
000300116042               EMERG DIESEL PESADO 90mm (-)       0000010617
000300116061               Borne de Bateria Peug-Ren.positivo 0000007645
000300116062               Borne de Bateria Peug-Ren.negativo 0000007645
000300116071               NAFTERO P/SOLDAR BRONCE (+)        0000003739
000300116072               NAFTERO P/SOLDAR BRONCE (-)        0000003739
000300116091               P/SOLDAR EST 35mm (+)              0000004241
000300116092               P/SOLDAR EST 35mm (-)              0000004241
000300116101               DIESEL P/SOLDAR BRONCE (+)         0000005393
000300116102               DIESEL P/SOLDAR BRONCE (-)         0000005393
000300116111               NAFTERO TORNILLO "L" (+)           0000007568
000300116112               NAFTERO TORNILLO "L" (-)           0000007568
000300116121               TERMINAL BATERIA FIAT 600          0000003691
000300116122               TERMINAL BATERIA FIAT 600          0000003691
000300116151               PEUGEOT CHAPA ZINCADA (+)          0000010353
000300116152               PEUGEOT CHAPA ZINCADA (-)          0000010353
000300116161               TERMINAL T/PEUGEOT (+)             0000011862
000300116162               TERMINAL T/PEUGEOT (-)             0000011862
000300116171               NAFTERO C/TORNILLOS ARRIBA (+)     0000006176
000300116172               NAFTERO C/TORNILLOS ARRIBA (-)     0000006176
000300116181               TERM CHAPA DE HIERRO (+)           0000004075
000300116182               TERM CHAPA DE HIERRO (-)           0000004075
000300116191               DIESEL C/TORNILLOS ARRIBA (+)      0000009227
000300116192               DIESEL C/TORNILLOS ARRIBA (-)      0000009227
000300116201               EXTRA REF.DIESEL HASTA CAB.95mm(+) 0000010803
000300116202               EXTRA REF DIESEL HASTA CAB 95mm(-) 0000010803
000300116221               DIESEL REFORZ TORN "L" (+)         0000012728
000300116222               DIESEL REFORZ TORN "L"(-)          0000012728
0003002No2500              COMUN P/CHASIS                     0000021986
0003002No2501              P/APLICACION SOBRE BATERIA         0000037647
0003002No2502              CON LLAVE                          0000034548
0003002No2504              CORTA CORRIENTE P/SERVICIO MEDIANO 0000051865
0003002No2508              LLAVIN P/CORTA CTE No2502 X9       0000002820
0003003CL2107              CLIPS BATERIA 25 AMPERES           0000001471
0003003CL2108              CLIPS P/BATERIA 50 AMP.            0000002397
0003003CL2109              CLIPS P/BATERIA 120 AMP            0000004372
0003003CL2110              CLIPS P/BATERIAS 250 AMP.          0000009534
0003003CL2116N             CLIPS P/BAT 25 AMP AISLADO NEGRO   0000001768
0003003CL2116R             CLIPS P/BAT 25 AMP AISLADO ROJO    0000001768
0003003CL2117N             CLIPS P/BAT 50 AMP AISLADO NEGRO   0000002618
0003003CL2117R             CLIPS P/BAT 50 AMP AISLADO ROJO    0000002618
0003003CL2119N             CLIPS P/BAT 250AMP AISLADO NEGRO   0000009932
0003003CL2119R             CLIPS P/BAT 250 AMP AISLADO ROJO   0000009932
0003004925                 TERM BRONCE ESTANADO 70mm          0000007816
0003004926                 TERM BRONCE ESTANADO 95mm          0000009322
0003004927                 TERM.DE BRONCE FUNDIDO 120mm       0000012317
0003005TC200               TERM COBRE 25mm                    0000001709
0003005TC201               TERM COBRE 35mm                    0000001709
0003005TC202               TERM COBRE 50mm                    0000001973
0003005TC203               TERM COBRE 70mm                    0000002620
0003005TC204               TERM COBRE 90 mm                   0000003879
0003005TC824               TERM.COBRE 50mm LIVIANO            0000005795
0003005TC825               TERM.COBRE 70mm LIVIANO            0000008197
0003005TC917               TERM COBRE ESTANADO 2mm            0000000395
0003005TC918               TERM COBRE ESTANADO 4mm            0000000514
0003005TC919               TERM COBRE ESTANADO 6mm            0000000802
0003005TC920               TERM COBRE ESTANADO 10mm           0000001297
0003005TC921               TERM COBRE ESTANADO 16mm           0000001714
0003005TC922               TERM COBRE ESTANADO 25mm           0000003080
0003005TC922/10            TERM COBRE EST 25mm AGUJ 10mm      0000003080
0003005TC923               TERM COBRE ESTANADO 35mm           0000003915
0003005TC923/10            TERM COBRE EST 35mm AGUJ 10mm      0000003915
0003005TC924               TERM COBRE ESTANADO 50mm           0000006505
000300610248               PARLANTES 2x1                      0000001868
000300610249               PARLANTES 2x0.35                   0000000853
000300610250               PARLANTES 2x0.50                   0000001118
000300710101               ENV.CHATO 2 X 0,35                 0000001097
000300710105               ENV.CHATO 2 X 1,5                  0000002197
000300710117               ENV.CHATO 4 X 0,20                 0000001027
000300710119               ENV.CHATO 6 X 0,20                 0000002401
000300810003-0,50S         UNIPOLAR 1 X 0,50 SURTIDOS         0000000528
000300810004-0,75S         UNIPOLAR 1 X 0,75 SURTIDO          0000000500
000300810005-1A            UNIPOLAR 1 X1 AMARILLO             0000000568
000300810005-1AZ           UNIPOLAR 1X1 AZUL                  0000000568
000300810005-1B            UNIPOLAR 1X1 BLANCO                0000000568
000300810005-1C            UNIPOLAR 1X1 CELESTE               0000000568
000300810005-1G            UNIPOLAR 1X1 GRIS                  0000000568
000300810005-1M            UNIPOLAR 1X1 MARRON                0000000568
000300810005-1N            UNIPOLAR 1X1 NEGRO                 0000000568
000300810005-1NAR          UNIPOLAR 1X1 NARANJA               0000000568
000300810005-1R            UNIPOLAR 1X1 ROJO                  0000000568
000300810005-1S            UNIPOLAR 1x1 SURTIDO               0000000568
000300810005-1V            UNIPOLAR 1X1 VERDE                 0000000568
000300810006-1,5A          UNIPOLAR 1X1,5 AMARILLO            0000000860
000300810006-1,5AZ         UNIPOLAR 1X1,5 AZUL                0000000860
000300810006-1,5B          UNIPOLAR 1X1,5 BLANCO              0000000860
000300810006-1,5C          UNIPOLAR 1X1,5 CELESTE             0000000860
000300810006-1,5G          UNIPOLAR 1X1.5 GRIS                0000000860
000300810006-1,5M          UNIPOLAR 1X1,5 MARRON              0000000860
000300810006-1,5N          UNIPOLAR 1X1,5 NEGRO               0000000860
000300810006-1,5NAR        UNIPOLAR 1X1.5 NARANJA             0000000860
000300810006-1,5R          UNIPOLAR 1X1,5 ROJO                0000000860
000300810006-1,5S          UNIPOLAR 1x1.5 SURTIDO             0000000860
000300810006-1,5V          UNIPOLAR 1X1,5 VERDE               0000000860
000300810008-2,5A          UNIPOLAR 1 X 2.5 AMARILLO          0000001265
000300810008-2,5AZ         UNIPOLAR 1X2,5 AZUL                0000001265
000300810008-2,5B          UNIPOLAR 1X2,5 BLANCO              0000001265
000300810008-2,5C          UNIPOLAR 1X2,5 CELESTE             0000001265
000300810008-2,5G          UNIPOLAR 1X2,5 GRIS                0000001265
000300810008-2,5M          UNIPOLAR 1X2.5 MARRON              0000001265
000300810008-2,5N          UNIPOLAR 1X2,5 NEGRO               0000001265
000300810008-2,5R          UNIPOLAR 1X2,5 ROJO                0000001265
000300810008-2,5S          UNIPOLAR 1x2,5 SURTIDO             0000001265
000300810008-2,5V          UNIPOLAR 1X2,5 VERDE               0000001265
000300810010-4AZ           UNIPOLAR 1X4 AZUL                  0000001940
000300810010-4B            UNIPOLAR 1X4 BLANCO                0000001940
000300810010-4M            UNIPOLAR 1X4 MARRON                0000001940
000300810010-4N            UNIPOLAR 1X4 NEGRO                 0000001940
000300810010-4R            UNIPOLAR 1X4 ROJO                  0000001940
000300810010-4S            UNIPOLAR 1x4 SURTIDO               0000001940
000300810010-4V            UNIPOLAR 1X4 VERDE                 0000001940
000300810012-6B            UNIPOLAR 1X6 BLANCO                0000002855
000300810012-6C            UNIPOLAR 1X6 CELESTE               0000002855
000300810012-6N            UNIPOLAR 1X6 NEGRO                 0000002855
000300810012-6R            UNIPOLAR 1X6 ROJO                  0000002855
000300810012-6S            UNIPOLAR 1x6 SURTIDO               0000002855
000300810012-6V            UNIPOLAR 1X6 VERDE                 0000002855
000300810013-10S           UNIPOLAR 1x10 SURTIDO              0000005063
000300910305               ENV. REDONDO 2 X 1                 0000001680
000300910305M              ENV REDONDO 2x1 ROLLO MENOR        0000001340
000300910306               ENV.REDONDO 2X1,5                  0000002375
000300910306M              ENV REDONDO 2X1,5 ROLLO MENOR      0000001894
000300910308               ENV. REDONDO 2 X 2.50              0000003498
000300910308M              ENV REDONDO 2x2,5 ROLLO MENOR      0000002793
000300910311               ENV. REDONDO 3 X 1                 0000002195
000300910311M              ENV REDONDO 3x1 ROLLO MENOR        0000001755
000300910312               ENV. REDONDO 3x1.5                 0000003185
000300910312M              ENV REDONDO 3x1,5 ROLLO MENOR      0000002545
000300910314               ENV. REDONDO 3 X 2.50              0000004850
000300910321               ENV. REDONDO 4 X 1                 0000003045
000300910321M              ENV REDONDO 4x1 ROLLO MENOR        0000002274
000300910322               ENV. REDONDO 4 X 1.50              0000004140
000300910324               ENV.REDONDO 4 X 2.50               0000006173
000300910329               ENV.REDONDO 5X1                    0000003955
000300910329M              ENV REDONDO 5x1 ROLLO MENOR        0000003161
000300910330               ENV.REDONDO 5X1,5                  0000005838
000300910330M              ENV REDONDO 5x1,5 ROLLO MENOR      0000004669
000300910331               ENV.REDONDO 7 X 1                  0000005458
000300910331M              EENV REDONDO 7x1 ROLLO MENOR       0000004363
000300910332               ENV.REDONDO 7X1,5                  0000007725
000300910332M              ENV REDONDO 7x1,5 ROLLO MENOR      0000006176
000300911022               ENV.RED. 5 X 1.50 CA EME           0000005343
000300913109M              ENV REDONDO 7x2,50 ROLLO MENOR     0000008544
000300913110               ENV.REDONDO 5 X 2,5                0000005971
000301010203               BIP PARALELO CHATO 2x0.50          0000000786
000301010204               BIP.PARALELO CHATO 2X0,80          0000001128
000301010205               BIP.PARALELO CHATO 2X1             0000001343
000301010206               BIP. PARALELO CHATO 2x1.5          0000001888
000301010208               BIP. PARALELO CHATO 2x2.50         0000002893
000301113200-16            CABLE DE ARRANQUE 1X16             0000008380
000301113201-25            CABLE DE ARRANQUE 1X25             0000012828
000301113202-35            CABLE DE ARRANQUE 1X35             0000017870
000301113203-50            CABLE DE ARRANQUE 1X50             0000025595
000301113204-70            CABLE DE ARRANQUE 1X70             0000036498
000301113205-95            CABLE DE ARRANQUE 1x90             0000048445
0003012981                 PALA HEMBRA C/COL.                 0000000069
0003012982                 AISLANTE PLASTICO HEMBRA           0000000052
0003012983                 AISLANTE PLASTICO MACHO            0000000050
0003013X92053              LAMPARA PORTATIL C/CLIPS 12V       0000042666
0003014No1614              BULON PARA BATERIA                 0000000566
0003015TER  9              K  0-OJAL 5,5mm                    0000000152
0003015TER 14              K 38-OJAL 6.5mm                    0000000364
0003015TER 39              K 39-OJAL 4.75mm                   0000000319
0003015TER 43 3/8          TERM. 43 3/8                       0000000531
0003015TER 47              K  1-HORQUILLA 4.5mm               0000000288
0003015TER915              K120-PALA HEMBRA                   0000000164
0003015TER916              PALA MACHO                         0000000145
0003015TER950              TERM PALA HEMBRA C/LENGUETA        0000000181
0003015TER951              TERM. PALA P/ CABLE 0.5 A 1.5 MM   0000000121
0003015TER954              PALA MACHO C/TRABA LARGO (=F8936)  0000000238
0003015TER958              OJAL 8.6mm                         0000000424
000301611051               BUJIA CA 1                         0000002244
00040010401-A              UNIV CHICO USO MULTIPLE.AMBAR      0000006732
00040010401-AZ             UNIV.CHICO USO MULTIPLE AZUL       0000006732
00040010401-C              UNIV CHICO USO MULTIPLE.CRISTAL    0000006732
00040010401-R              UNIV CHICO USO MULTIPLE.ROJO       0000006732
00040010401-V              UNIV CHICO USO MULTIPLE.VERDE      0000006732
00040010420-A              FARO UNIV C/SOPORTE FLEXIBLE AMBAR 0000007696
00040010506N               JGO.TRAS.POSIC.STOP.GIRO.NEGRO     0000038658
00040010570-A              UNIV C/SOPORTE PLASTICO.AMBAR      0000011959
00040010570-AZ             UNIV C/SOPORTE PLASTICO.AZUL       0000011959
00040010570-C              UNIV C/SOPORTE PLASTICO.CRISTAL    0000011959
00040010570-R              UNIV C/SOPORTE PLASTICO.ROJO       0000011959
00040010570-V              UNIV C/SOPORTE PLASTICO.VERDE      0000011959
00040010580-A              FARO MULTILPE UNIVERSAL AMBAR      0000009713
00040010580-C              FARO MULTIPLE UNIVERSAL CRISTAL    0000009713
00040010580-R              FARO MULTIPLE UNIVERSAL ROJO       0000009713
00040010600-A              REDONDO UNIV PLASTICO.AMBAR        0000005333
00040010600-AZ             REDONDO UNIVERSAL PLASTICO AZUL    0000005333
00040010600-C              REDONDO UNIV PLASTICO.CRISTAL      0000005333
00040010600-R              REDONDO UNIV PLASTICO.ROJO         0000005333
00040010600-V              REDONDO UNIV PLASTICO.VERDE        0000005333
00040010600H-A             REDONDO UNIV PLAST C/SOPORTE.AMBAR 0000005493
00040010600H-C             REDONDO UNIV PLAST C/SOPORTE.CRIST 0000005493
00040010600H-R             REDONDO UNIV PLAST C/SOPORTE.ROJO  0000005493
00040010600H-V             REDONDO UNIV PLAST C/SOPORTE.VERDE 0000005493
00040010600RT              REDONDO UNIVERSAL REBATIBLE AZUL   0000008400
00040010601                SOPORTE TRIPLE C/FARO 0600 ESMALT  0000029700
00040010601FL              SOPORTE TRIPLE FLEX.C/3 FAROS 600  0000035484
00040010602-A              REDONDO UNIV BASE ANCHA AMBAR      0000007055
00040010602-C              REDONDO UNIV BASE ANCHA.CRISTAL    0000007055
00040010602-R              REDONDO UNIV BASE ANCHA.ROJO       0000007055
00040010602-V              REDONDO UNIV BASE ANCHA.VERDE      0000007055
00040010603                ILUMINA PATENTE CHICO PLAST.       0000007273
00040010604                ILUMINA PATENTE MEDIANO            0000004178
00040010604-A              ILUMINA PATENTE MEDIANO-AMBAR      0000004187
00040010605                ILUMINA PATENTE GRANDE.            0000014431
00040010607-A              UNIVERSAL RECTANG C/1 PORTAL.AMBAR 0000006526
00040010607-AZ             UNIV.RECTANG.C/UN PORTAL.AZUL      0000006526
00040010607-C              UNIVERSAL RECTANG C/1 PORTAL.CRIST 0000006526
00040010607-R              UNIVERSAL RECTANG C/1 PORTAL.ROJO  0000006526
00040010607-V              UNIVERSAL RECTANG C/1 PORTAL.VERDE 0000006526
00040010608                FARO ILUMINA PATENTE BAIML         0000007683
00040010610                SOPORTE TRIPLE FARO 0607.CON FAROS 0000031528
00040010613                SOPORTE TRIPLE P/FARO 1035         0000029069
00040010614                SOPORTE TRIPLE C/3 FARITOS 0634S   0000028726
00040010614FL              SOP TRIPLE FLEXIBLE C/3 0634S      0000038391
00040010615/0600           JGO.SOP DOBLE LATERAL (Faro 600)   0000033080
00040010615/0634           JGO.SOP DOBLE LATERAL.2-634/1-1048 0000044552
00040010615/0634-2         JGO.SOP DOBLE LATERAL (Faro 634)   0000035359
00040010620/0634           JGO.SOP TRIPLE LATERAL (Faro 634)  0000050723
00040010634BAY-A           UNIV CUADRADO-BAYONETA-AMBAR       0000006233
00040010634BAY-C           UNIV CUADRADO-BAYONETA-CRISTAL     0000006233
00040010634BAY-R           UNIV CUADRADO-BAYONETA-ROJO        0000006233
00040010634BAY-V           UNIV CUADRADO-BAYONETA-VERDE       0000006233
00040010634FL-A            LATERALES DE CHASIS Y ACOPLADOS    0000011502
00040010634FL-AZ           LATERALES DE CHASIS Y ACOPLADOS    0000011502
00040010634FL-C            LATERALES DE CHASIS Y ACOPLADOS    0000011502
00040010634FL-R            LATERALES DE CHASIS Y ACOPLADOS    0000011502
00040010634FL-V            LATERALES DE CHASIS Y ACOPLADOS    0000011502
00040010634R-A             FARITO MULTIPLE UNIVERSAL          0000006932
00040010634R-R             FARITO MULTIPLE UNIVERSAL          0000006932
00040010634S-A             MULT UNIV CUADR PLAST NEGRO.AMBAR  0000005129
00040010634S-AZ            FARO MULT UNIV CUADR PLAST NEGRO   0000005129
00040010634S-C             MULT UNIV CUADR PLAST NEGRO.CRISTAL0000005129
00040010634S-R             MULT UNIV CUADR PLAST NEGRO.ROJO   0000005129
00040010634S-V             MULT UNIV CUADR PLAST NEGRO.VERDE  0000005129
00040010634T               JGO FARO TRAS.UNIV.DOBLE           0000020833
00040010634TT              JGO FARO TRASERO UNIV.TRIPLE       0000028654
00040010635-A              SOPORTE SIMPLE (0634 Y REFL) AMBAR 0000012296
00040010635-AZ             SOPORTE ISMPLE (0634 Y REFL) AZUL  0000012296
00040010635-C              SOPORTE SIMPLE (0634 Y REFL)CRISTAL0000012296
00040010635-R              SOPORTE SIMPLE (0634 Y REFL) ROJO  0000012296
00040010635-V              SOPORTE SIMPLE (0634 Y REFL) VERDE 0000012296
00040010636-A              SOPORTE SIMPLE C/FARO 0600 AMBAR   0000012611
00040010636-R              SOPORTE SIMPLE C/FARO 0600 ROJO    0000012611
00040010636-V              SOPORTE SIMPLE C/FARO 0600 VERDE   0000012611
00040010660                JGO.SOPORTE TANQUE (4 Faros 600)   0000066391
00040010660/0634           JGO.SOPORTE TANQUE (4 Faros 634)   0000068994
00040010750N-A             JGO.FARO TECHO CHICO.AMBAR         0000012871
00040010750N-AZ            JGO. FARO TECHO CHICO AZUL         0000012871
00040010750N-C             JGO.FARO TECHO CHICO.CRISTAL       0000012871
00040010750N-R             JGO.FARO TECHO CHICO.ROJO          0000012871
00040010750N-V             JGO.FARO TECHO CHICO.VERDE         0000012871
00040010800-A              FARO DE TECHO UNIVERSAL            0000008178
00040010800-AZ             FARO DE TECHO UNIVERSAL AZUL       0000008178
00040010800-C              FARO DE TECHO UNIVERSAL CRISTAL    0000008178
00040010800-R              FARO DE TECHO UNIVERSAL ROJO       0000008178
00040010800-V              FARO DE TECHO UNIVERSAL VERDE      0000008178
00040010880N-A             JGO.FARO TECHO GRANDE.AMBAR        0000029784
00040010880N-AZ            JGO FARO TECHO GRANDE AZUL         0000029784
00040010880N-C             JGO.FARO TECHO GRANDE.CRISTAL      0000029784
00040010880N-R             JGO.FARO TECHO GRANDE.ROJO         0000029784
00040010880N-V             JGO.FARO TECHO GRANDE.VERDE        0000029784
00040010900                JGO.FARO TRASERO CON REFLECTOR     0000069878
00040011017S-A             UNIV C/CUERPO PROTECTOR NEGRO.AMBAR0000005827
00040011017S-AZ            UNIV.C/CUERPO PROTECTOR NEGRO AZUL 0000005827
00040011017S-C             UNIV C/CUERPO PROTECTOR NEGRO.CRIST0000005827
00040011017S-R             UNIV C/CUERPO PROTECTOR NEGRO.ROJO 0000005827
00040011017S-V             UNIV C/CUERPO PROTECTOR NEGRO.VERDE0000005827
00040011021-A              PERITA PLASTICO UNIPOLAR FIJO.AMBAR0000005864
00040011021-C              PERITA PLASTICO UNIPOLAR FIJO.AMBAR0000005864
00040011021-R              PERITA PLASTICO FIJO UNIPOLAR.ROJO 0000005864
00040011021-V              PERITA PLASTICO UNIPOLAR FIJO.VERDE0000005864
00040011021FL-A            PERITA PLASTICO UNIP FLEXIBLE.AMBAR0000007918
00040011021FL-AZ           PERITA PLASTICO UNIP FLEXIBLE AZUL 0000007918
00040011021FL-C            PERITA PLASTICO UNIP FLEXIBLE.CRIST0000007918
00040011021FL-R            PERITA PLASTICO UNIP FLEXIBLE.ROJO 0000007918
00040011021FL-V            PERITA PLASTICO UNIP FLEXIBLE.VERDE0000007918
00040011030-A              MINI FARITO RECTANGULAR.AMBAR      0000003539
00040011030-AZ             MINI FARITO RECTANGULAR AZUL       0000003539
00040011030-C              MINI FARITO RECTANGULAR.CRISTAL    0000003539
00040011030-R              MINI FARITO RECTANGULAR.ROJO       0000003539
00040011030-V              MINI FARITO RECTANGULAR.VERDE      0000003539
00040011035-A              UNIVERSAL MULTIPLE.AMBAR           0000005210
00040011035-AZ             UNIVERSAL MULTIPLE AZUL            0000005210
00040011035-C              UNIVERSAL MULTIPLE CRISTAL         0000005210
00040011035-R              UNIVERSAL MULTIPLE.ROJO            0000005210
00040011035-V              UNIVERSAL MULTIPLE.VERDE           0000005210
00040011035FL-A            FARO LATERAL FLEX.SIMPLE AMBAR     0000009595
00040011035FL-AZ           FARO LATERAL FLEX.SIMPLE AZUL      0000009595
00040011035FL-C            FARO LATERAL FLEX. SIMPLE CRISTAL  0000009595
00040011035FL-R            FARO LATERAL FLEX.SIMPLE ROJO      0000009595
00040011035FL-V            FARO LATERAL FLEX. SIMPLE VERDE    0000009595
00040011035FL2             JGO FARO LATERAL FLEX.DOBLE        0000029104
00040011036-A              FARO UNIVERSAL P/EMBUTIR AMBAR     0000006194
00040011036-R              FARO P/EMBUTIR ROJO                0000006194
00040011036-V              FARO P/EMBUTIR VERDE               0000006194
00040011037-A              FARO REDONDO UNIVERSAL AMBAR       0000007099
00040011037-AZ             FARO REDONDO UNIVERSAL AZUL        0000007099
00040011037-C              FARO REDONDO UNIVERSAL             0000007099
00040011037-R              FARO REDONDO UNIVERSAL ROJO        0000007099
00040011037-V              FARO REDONDO UNIVERSAL VERDE       0000007099
00040011037FL-A            FARO FLEXIBLE REDONDO C/SOPORTE LAT0000009393
00040011037FL-AZ           FARO FLEXIBLE REDONDO C/SOPORTE LAT0000009393
00040011037FL-C            FARO FLEXIBLE REDONDO C/SOPORTE LAT0000009393
00040011037FL-R            FARO FLEXIBLE REDONDO C/SOPORTE LAT0000009393
00040011037FL-V            FARO FLEXIBLE REDONDO C/SOP LATERSA0000009393
00040011037FL2             JGO SOPORTE LAT FLEX DOBLE C/2 FARO0000035356
00040011038-A              FARO REDONDO UNIVERSAL AMBAR       0000007099
00040011038-C              FARO REDONDO UNIVERSAL CRISTAL     0000007099
00040011038-R              FARO RDONDO UNIVERSAL ROJO         0000007099
00040011038-V              UNIVERSAL REDONDO VERDE            0000007099
00040011038FL-A            FARO FLEXIB REDON C/SOPORTE LATERAL0000009393
00040011038FL-R            FARO FLEXIB REDOND C/SOPORTE LATERA0000009393
00040011038FL-V            FARO FLEXIB REDOND C/SOPORTE LATERA0000009393
00040011039-A              LATERAL REDONDO LAMP 5007-AMBAR    0000008955
00040011039-C              LATERAL  REDONDO LAMP 5007 - CRISTA0000008955
00040011039-R              LATERAL REDONDO LAMP 5007 - ROJO   0000008955
00040011050-A              JGO.TRASERO CUADRADO.AMBAR         0000026403
00040011050-AZ             JGO.TRASERO CUADRADO.AZUL          0000026403
00040011050-C              JGO.TRASERO CUADRADO.CRISTAL       0000026403
00040011050-R              JGO.TRASERO CUADRADO.ROJO          0000027144
00040011060-RA             JGO.TRASERO RECTANG.ROJO-AMBAR     0000042706
00040011060-RR             JGO.TRASERO RECTANG.ROJO-ROJO      0000042706
00040011075                JGO.FARO TRASERO C/ILUM PATENTE    0000041391
00040011080                JGO FARO RECT.TRASERO              0000067038
00040011090C               JGO.TRASERO GDE.38,5 X 20,5.CROM   0000092922
00040011090N               JGO.TRASERO GDE.38,5 X 20,5.NEGRO  0000092922
00040011095                JGO.TRASERO GDE.41,8 X 20,2.NEGRO  0000091505
00040011100-A              JGO TRASERO REDONDO GDE 147mm DIAM.0000030654
00040011100-AZ             JGO TRASERO REDONDO GDE 147mm AZUL 0000030654
00040011100-C              JGO.TRASERO REDONDO GDE CRISTAL    0000030654
00040011100-R              JGO TRASERO REDONDO GDE 147mm DIAM 0000032132
00040011100-V              JGO TRASERO REDONDO GDE 147mm DIAM.0000030654
00040011105-A              RED MED 110mm CHATO 2 PORT.AMBAR   0000009124
00040011105-C              RED MED 110mm CHATO 2 PORTALAMP    0000009124
00040011105-R              RED MED 110mm CHATO 2 PORT.ROJO    0000009124
00040011105-V              RED MED 110mm CHATO 2 PORT.VERDE   0000009124
00040011108N               JGO.FARO DOBLE FAZ REDONDO.DELANT  0000031382
00040011109N               JGO.FARO DOBLE FAZ CUADRADO.DELANT 0000048216
00040011110                FARO REDONDO UNIVERSAL TRASERO     0000054097
00040011110V               FARO REDONDO UNIV TRASERO C/VENTANA0000057211
00040011200                JGO.FARO TRASERO GDE.44,5 X 24,0   0000111151
00040011215                JGO.TRASERO MEDIANO.30,5 X 14,0    0000064739
00040011216                JGO.TRASERO MEDIANO.28 X 15        0000071026
00040011216V               JGO.TRASERO MEDIANO C/VENT.28 X 15 0000073142
00040011230                JGO.TRAS RECT ANGOSTO.30 X 7,6     0000037333
00040011250-A              RECT.CHICO 15X8 UNIVERSAL AMBAR    0000011444
00040011250-C              RECT.CHICO 15X8 UNIVERSAL CRISTAL  0000011444
00040011250-R              RECT.CHICO 15X8 UNIVERSAL ROJO     0000011896
00040011250-V              RECT.CHICO 15X8 UNIVERSAL VERDE    0000011444
00040011255-A              UNIVERSAL MULTIPLE,AMBAR           0000006997
00040011255-C              UNIVERSAL MULTIPLE,CRISTAL         0000006997
00040011255-R              UNIVERSAL MULTIPLE.ROJO            0000006997
00040011255-V              UNIVERSAL MULTIPLE.VERDE           0000006997
00040011260                JGO.TRASERO CUADRADO.14,3 X 14,4   0000043741
00040011260V               JGO.TRAS CUADR V/VEN.14,3 X 14,4   0000044845
00040011300                JGO.TRAS T/M BENZ 1517.S/VENT      0000063120
00040011300C/R             JGO. FARO 1300 CON RET.            0000062220
00040011300C/RV            JGO. FARO 1300 CON RET CON VENTANA 0000064303
00040011300V               JGO.TRAS T/M BENZ 1517.C/VENT      0000065205
00040011300VC/R            FARO 1300 C/VENTANA C/RETROCESO    0000064303
00040011325                JGO.TRAS T/M BENZ 608.S/VENT       0000041354
00040011325V               JGO.TRAS T/M BENZ 608.C/VENT       0000043179
00040011400A               FARO UNIV.RECTANG.13cm X 11cm.     0000012685
00040011400AZ              FARO UNIV. RECTANG. 13CM X 11CM AZU0000012685
00040011400C               FARO UNIV.RECTANG.13cm X 11cm      0000012685
00040011400R               FARO UNIV.RECTANG.13cm X 11cm      0000012685
00040011400RU              FARO UNIV.RECTANG.13cm X 11cm UNIPO0000012685
00040011400V               FARO UNIV.RECTANG.13cm X 11cm      0000012685
00040011405R-A             FARITO LATERAL UNIV.AMBAR          0000006632
00040011405R-AZ            FARO LATERAL UNIV. AZUL            0000006632
00040011405R-C             FARITO LATERAL UNIV.CRISTAL        0000006632
00040011405R-R             FARITO LATERAL UNIV.ROJO           0000006632
00040011405R-V             FARITO LATERAL UNIV.VERDE          0000006632
00040011450                UNIV. TRASERO CHICO ROJO Y AMBAR   0000017471
00040011500                JGO UNIVERSAL TRASERO S/VENT       0000065853
00040011500C/R             FARO UNIV TRASERO C/RETROCESO      0000070003
00040011500V               JGO UNIVERSAL TRASERO C/VENT       0000067936
00040011500VC/R            FARO UNIV TRASERO C/RETRO C/VENT   0000072087
00040011530                JGO DE FAROS TRASEROS              0000033361
00040011580                JGO FARO UNIVERSAL TRASERO         0000048279
00040011600                JGO FARO TRASERO UNIVERSAL         0000125481
00040011600B               JGO FARO TRASERO BIPOLAR           0000135724
00040011600V               JGO FARO TRASERO UNIV. C/VENTANA   0000136179
00040011600VB              JGO FARO TRAS BIPOLAR C/VENTANA    0000145788
00040011610                JGO FARO TRASERO UNIVERSALES       0000091904
00040011610B               JGO FARO TRASERO BIPOLAR RO-RO-AM  0000104351
00040011610V               JGO FARO TRASERO UNIV. C/VENTANA   0000097198
00040011610VB              JGO FARO TRAS BIPOLAR C/VENTANA    0000110877
00040011620-A              RECTANGULAR TRASERO AMBAR          0000017260
00040011620-C              RECTANGULAR TRASERO CRISTAL        0000017260
00040011620-R              RECTANGULAR TRASERO ROJO           0000017260
00040011620B-R             FARO RECTANG.TRASERO BIPOLAR ROJO  0000021944
00040011620V-A             RECTANGULAR TRASERO C/VENT AMBAR   0000020304
00040011620V-R             RECTANGULAT TRASERO C/VENT.ROJO    0000020304
00040011620VB-R            FARO RECT.TRAS.BIPOLAR ROJO C/VENTA0000024680
00040011700/1              LUZ DE STOP LUNETA C/ADHESIVO      0000029208
00040011700/2              LUZ DE STOP LUNETA PARA ATORNILLAR 0000027324
00040011700/3              LUZ STOP LUNETA P.UP C/ADHESIVO    0000028730
00040011800-A              RED 156mm UNIP S/SOP-AMBAR         0000016302
00040011800-C              RED.C/REFLEC.UNIP.S/SOP, CRISTAL   0000016302
00040011800MT-3            MARCO SOPOR TRAS C/3 FAROS 1800    0000052325
00040011800MT-4            MARCO SOPOR TRAS C/4 FAROS 1800    0000070815
00040011800S-A             RED 156mm UNIP C/SOP-AMBAR         0000018590
00040011800S-C             RED 156mm UNIP C/SOP-CRISTAL       0000018590
00040011800S-R             RED.C/REFLECTOR UNIPOL. C/SOP.ROJO 0000018590
00040011800SB-R            RED 156mm BIPOLAR C/SOP-ROJO       0000020427
00040011810-A              TRASERO RED.MED.s/SOP.UNIP.AMBAR   0000014219
00040011810-R              TRASERO RED MED.s/SOP.UNIP.ROJO    0000014219
00040011810B-R             TRASERO RED MED.s/SOP.BIPOL.ROJO   0000016056
00040011810MT-3            MARCO SOPOR TRAS T/RANDON C/3 FAROS0000046970
00040011810MT-4            MARCO SOPORT TRAS T/RANDON C/4 FARO0000062078
00040011810S-A             TRASERO RED MED.c/SOP.UNIP.AMBAR   0000016293
00040011810S-C             TRASERO RED MED.c/SOP.UNIP.CRISTAL 0000016293
00040011810S-R             TRASERO RED MED.c/SOP.UNIP.CRISTAL 0000016293
00040011810SB-R            TRASERO RED MED.c/SOP.BIPOL.ROJO   0000018130
00040011820-A              RED.CHICO UNIPOLAR S/SOP.AMBAR     0000012098
00040011820-R              RED.CHICO UNIPOLAR S/SOP. ROJO     0000012098
00040011820S-A             RED.CHICO UNIP. C/ARO FLEXIBLE AMBA0000013797
00040011820S-C             RED.CHICO UNIP.C/ARO FLEX. CRISTAL 0000013797
00040011820S-R             REDONDO CHICO UNIP C/ARO FLEXI ROJO0000013797
00040011820S-V             RED.CHICO UNIP.C/ARO FLEX. VERDE   0000013797
00040011820SB-R            RED.CHICO BIPOLAR C/ARO FLEX.ROJO  0000015634
00040011830-A              TRAS.REDONDO MEDIANO UNIPOLAR AMBAR0000013583
00040011830-C              TRAS.REDONDO MEDIANO UNIPOLAR CRIST0000013583
00040011830B-R             TRAS.REDONDO MEDIANO BIPOLAR ROJO  0000013957
00040011830MT-3D           MARCO TRASERO 3 FAROS 1830 DERECHO 0000041581
00040011830MT-3I           MARCO TRASERO 3 FAROS 1830 IZQUIER 0000041581
00040011840-A              FARO REDONDO CHICO UNIPOLAR AMBAR  0000010451
00040011840-C              FARO REDONDO CHICO UNIPOLAR CRISTAL0000010451
00040011840-R              FARO REDONDO CHICO UNIPOLAR ROJO   0000010451
00040011850-A              REDONDO TRASERO ARO FLEX UNIP AMBA 0000015082
00040011850-C              REDONDO TRASERO ARO FLEX UNIP CRIST0000015082
00040011850-R              REDONDO TRASERO ARO FLEX UNIP ROJO 0000015082
00040011900                JGO FARO TIPO FORD 14000.S/VENT    0000088345
00040011900V               JGO FARO TIPO FORD 14000.C/VENT    0000089231
00040012000                LUZ DE FRENO SUPERIOR C/28 LEDS    0000055777
00040012000D               LUZ DE FRENO 28 LEDS.C/DESTELLADOR30000056659
00040013060-A              FARO DELIMITADOR UNIV 2 RETROREF AM0000009662
00040013060-R              FARO DELIMITADOR UNIV 2 RETROREF RO0000009662
00040014000-A              AMBULANCIA C/LAMPARA-AMBAR         0000028879
00040014000-AZ             AMBULANCIA C/LAMPARA-AZUL          0000028879
00040014000-C              AMBULANCIA C/LAMPARA-CRISTAL       0000028879
00040014000-R              AMBULANCIA C/LAMPARA-ROJO          0000028879
00040014000-V              AMBULANCIA C/LAMPARA-VERDE         0000028879
00040014000STR-AZ          AMBULANCIA STROBOSCOPICO 12V       0000139200
0004001C1800D              CONJ ARMADO 4 F/1800.DERECHO       0000113656
0004001C1800I              CONJ ARMADO 4 F/1800.IZQUIERDO     0000113656
0004001C1810D              CONJ ARMADO 4 F/1810 DER           0000105518
0004001C1810D-3            CONJ ARMADO 3 FAROS 1810 DERECHO   0000081703
0004001C1810D-3SLF         =C1810D-3 S/FAROS LAT S/FICHA CONEX0000083310
0004001C1810I              CONJ ARMADO 4 F/1810 IZQ           0000105518
0004001C1810I-3            CONJ ARMADO 3 FAROS 1810 IZQUIERDO 0000081703
0004001C1810I-3SLF         =C1810I-3 S/FAROS LAT S/FICHA CONEX0000083312
0004001C1811-3-R           CONJ ARMADO 3 FAROS 1810 ROJO UNIP 0000055958
0004001C1811D              CONJ ARMADO 4 FAROS 1810 DERECHO   0000073416
0004001C1811D-3            CONJ ARMADO 3 FAROS 1810 C-R-A DER 0000057754
0004001C1811I              CONJ ARMADO 4 FAROS 1810 IZQUIERDO 0000073416
0004001C1811I-3            CONJ ARMADO 3 FAROS 1810 C-R-A IZQ 0000057754
00040020480P               FARO PLAFOND C/LENTE DE VIDRIO     0000015789
00040020480PLL             PLAFOND DE VIDRIO C/LLAVE          0000018794
00040020500P               FARO PLAFOND C/LENTE DE VIDRIO     0000024645
00040020500PLL             PLAFOND DE VIDRIO C/LLAVE          0000027134
00040020602PM              C/LLAVE LENTE OPALINO(CUERP.MARFIL)0000008530
00040021235PM              RECT.ANGOSTO L/OP(CUER.MARFIL)     0000016555
00040021240PM              RECT ANG CHICO L/OP C/LLAVE C/MAR  0000013852
00040021255PM              FARO PLAF CHICO C/LLAVE INT C/OP   0000008087
00040021270P               RECT.PLAFONIER Xa EMBUTIR C/LLAVE  0000015216
0004002401P                FARO PLAFON INT C/LLAVE.CHICO      0000009249
00040030898/1              REFLECTOR TRASERO UNIVERSAL        0000005354
00040030898/2              REFLECTOR TRASERO UNIVERSAL DOBLE  0000009690
00040030899-A              TRAPEZOIDAL CHICO 42X 60mm AMBAR   0000002069
00040030899-R              TRAPEZOIDAL CHICO 42 X 60mm AMBAR  0000002069
00040030900R               REFLECTOR TRIANGULAR               0000004660
00040030900R1              REFLECTIVO TRIANGULAR C/U          0000008222
00040030900R4              REFLECTOR TRIANGULAR C/4 0900R     0000028215
00040030900RD              DISPLAY C/4 REFLECT 0900R          0000018727
00040031040-A              OVALADO LARGO.AMBAR                0000002732
00040031040-R              OVALADO LARGO.ROJO                 0000002732
00040031040D               DISPLAY C/12 REFLEC. ART. 1040     0000030187
00040031041-A              RECTANGULAR AMBAR                  0000002730
00040031041-R              RECTANGULAR.ROJO                   0000002730
00040031041D               DISPLAY C/12 REFLEC. ART .1040     0000030343
00040031042-A              REDONDO GRANDE.AMBAR               0000002934
00040031042-R              REDONDO GRANDE.ROJO                0000002934
00040031042D               DISPLAY C/12 REFLEC. ART. 1042     0000030925
00040031043-A              REDONDO CHICO.AMBAR                0000002519
00040031043-R              REDONDO CHICO.ROJO                 0000002519
00040031043D               DISPLAY C/20 REFLEC. ART. 1043     0000040384
00040031044-A              OVALADO CORTO.AMBAR                0000002786
00040031044-R              OVALADO CORTO.ROJO                 0000002786
00040031044D               DISPLAY C/15 REFLEC. ART. 1044     0000035925
00040031045-A              RECTANGULAR 165 X 20 mm.AMBAR      0000002521
00040031045-R              RECTANGULAR 165 X 20 mm.ROJO       0000002521
00040031045D               DISPLAY C/12 REFLEC. ART. 1045     0000025895
00040031046-A              RECTANGULAR 133 X 24 mm.AMBAR      0000002289
00040031046-R              RECTANGULAR 133 X 24 mm.ROJO       0000002289
00040031046D               DISPLAY C/12 REFLEC. ART. 1046     0000023612
00040031047-A              RECTANGULAR 220 X 23 mm.AMBAR      0000003166
00040031047-R              RECTANGULAR 220 X 23 mm.ROJO       0000003166
00040031047D               DISPLAY C/12 REFLEC. ART. 1047     0000032635
00040031048-A              RECTANGULAR CHICO 60 X 72mm AMBAR  0000002521
00040031048-R              RECTANGULAR CHICO 60 X 72mm ROJO   0000002521
00040031049D               DISPLAY C/10 REFLEC VARIOS (1 C/U) 0000025649
00040031400R-A             REFLECTOR RECT.GRANDE AMBAR        0000004711
00040031400R-R             REFLECTOR RECT.GRANDE ROJO         0000004711
00040040480PLLE            PLAFON 10 LEDS CON LLAVE           0000061712
00040040603E               ILUMINA PATENTE 6 LED              0000024824
00040040607E-24R           FARITO UNIV.ELECT. 24V ROJO        0000027306
00040040607E-A             FARITO UNIV.ELECT.12V.AMBAR.       0000068139
00040040607E-R             FARITO UNIV.ELECT.12V ROJO         0000068139
00040040608E               FARO ILUMINA PATENTE               0000033640
00040040612E-R             SOPORTE METALICO 3-1035E ROJO      0000071456
00040040634E-A             FARO UNIV CUADRADO ELECTR AMBAR    0000018792
00040040634E-AB            UNIVERSAL 4 LEDS BIVOLT AMBAR      0000018792
00040040634E-C             FARO UNIV CUADRADO ELECTR CRISTAL  0000019256
00040040634E-CB            UNIVERSAL 4 LEDS BIVOLT CRISTAL    0000019256
00040040634E-R             FARO UNIV CUADRADO ELECTR ROJO     0000018792
00040040634E-RB            UNIVERSAL 4 LEDS BIVOLT ROJO       0000018792
00040040660/1035E          SOPORTE TANQUE C/4 FAROS 1035 ELECT0000155440
00040041030E-24A           MINI FARO AMBAR 24V                0000025973
00040041030E-24R           MINI FARO ROJO 24V                 0000025973
00040041030E-A             MINI FARO AMBAR 12/24              0000017400
00040041030E-RB            MINI FARO ROJO-BIPOLAR 12/24       0000017400
00040041033E-A             OVAL CHICO 3 LED BIVOLTAJE AMBAR   0000015305
00040041033E-C             OVAL CHICO 3 LED BIVOLTAJE CRISTAL 0000016240
00040041033E-R             OVAL CHICO 3 LED BIVOLTAJE ROJO    0000015305
00040041033E-V             OVAL CHICO 3 LED BIVOLTAJE VERDE   0000015789
00040041034E-AB            UNIV OVAL BIPOLAR/BIVOLTAJ DELIM LA0000040600
00040041034E-AU            UNIV.OVAL ELECTR.12 LEDS AMBAR     0000040600
00040041034E-RB            UNIV.OVAL ELECTR.12 LEDS ROJO      0000040600
00040041035E-A             OVALADO ELECTR BIVOLTAJE-AMBAR     0000017400
00040041035E-C             OVALADO ELECTR BIVOLTAJE-CRISTAL   0000018328
00040041035E-R             OVALADO ELECTR BIVOLTAJE-ROJO      0000017400
00040041035E-V             OVALADO ELECTRONICO BIVOLTAJE-VERDE0000018792
00040041580E               JGO FAROS RECT TRAS C/M ATRAS      0000174000
00040041600E               TRASERO UNIV ELECT BIVOLT          0000661200
00040041600EB              TRASERO UNIV BIVOLTAJE             0000533600
00040041610E               TRASERO UNIV ELECT BIVOLT          0000518288
00040041610EB              TRASERO UNIV BIVOLTAJE             0000401360
00040041620E-AU            RECTAG TRAS 18 LED BIVOLTAJE AMBAR 0000073080
00040041620E-CU            RECTANG TRAS 18 LED BIVOLTAJE CRIST0000075400
00040041620E-RB            RECTAG TRAS 18 LED BIVOLTAJE ROJO  0000075400
00040043000E-AU            RED 4" LEDS-UNIP-12/24-AMBAR       0000091375
00040043000E-CU            RED 4" LEDS-UNIP-12/24-CRISTAL     0000098600
00040043000E-RB            RED 4" LEDS-BIPOL-12/24-ROJO       0000093892
00040043000E-VU            RED 4" LEDS-12V-VERDE              0000098600
00040043000EMT-3           SOPORTE 3-3000E CRA                0000294640
00040043000EMT-3RB         SOPORTE 3-3000E RRR BIPOLAR        0000278351
00040043000EMT-4           SOPORTE 4-3000E CRRA               0000381408
00040043010E-AB            OVAL 6" LEDS BIVOLTAJE BIPOLAR AMBA0000071920
00040043010E-AU            OVAL 6" 25 LEDS UNIPOLAR AMBAR     0000071920
00040043010E-RB            OVAL 6" 25 LEDS BIVOLT. ROJO       0000071920
00040043020E-A             OVAL SECUENCIAL 12-24V-AMBAR       0000087000
00040043030E-A             RED 2" LEDS-UNIP-12/24-AMBAR       0000029009
00040043030E-AZ            RED 2" LEDS-UNIP-12/24-AZUL        0000030635
00040043030E-C             RED 2" LEDS-UNIP-12/24-CRISTAL     0000029990
00040043030E-R             RED 2" LEDS-UNIP-12/24-ROJO        0000029009
00040043030E-V             RED 2" LEDS-UNIP-12/24-VERDE       0000030635
00040043030EFL-A           SOP FLEX SIMPLE BIVOL AMBAR        0000032078
00040043030EFL-V           SOP FLEX SIMPLE BIVOLT VERDE       0000033640
00040043040E-AB            RED 2,5" LEDS-BIPOL-12/24-AMBAR    0000029491
00040043040E-RB            RED 2,5" LEDS-BIPOL-12/24-ROJO     0000029491
00040043050E-A             FARO ELECT 4 LEDS BIVOLTAJE AMBAR  0000025195
00040043050E-C             FARO ELECTR 4 LEDS BIVOLTAJE CRISTA0000026174
00040043050E-R             FARO ELECTR 4 LEDS BIVOLTAJE ROJO  0000025195
00040043060E-RR            FARO DELIM UNIV 4 LEDS BIVOLT ROJO 0000024260
00040043100E-AU            REDONDO ELECT. 20 LED BIVOLT. AMBAR0000072616
00040043100E-CU            REDONDO ELECT. 20 LED BIVOLT CRISTA0000074843
00040043100E-RB            REDONDO ELECT. 20 LED BIVOLT ROJO  0000074843
00040043200E-AU            REDONDO 20 LED SMD BIVOL.UNIP. AMBA0000067061
00040043200E-CU            REDONDO 20 LED SMD BIVOL.UNIP.CRIST0000073096
00040043200E-RB            REDONDO 20 LED SMD BIVOLT.BIPOL.ROJ0000073096
0004004401PE               PLAFON ELECTRONICO C/LLAVE         0000022040
00040046000E-A             BALIZA ELECT.12/24V C/TORNI.AMBAR  0000103221
00040046000E-R             BALIZA ELECT.12/24V C/TORNI.ROJO   0000103221
0004004C3000E-3-RB         CONJ ARMADO 3-3000E RRR BIPOLAR    0000303117
0004004C3000ED             CONJ ARMADO 4-3000E CRRA.DER       0000416672
0004004C3000ED-3           CONJ ARMADO 3-3000E CRA.DER        0000322944
0004004C3000ED-3-RRA       CONJ ARMADO 3-3000E RRA.DER        0000306158
0004004C3000EI             CONJ ARMADO 4-3000E CRRA.IZQ       0000416672
0004004C3000EI-3           COMJ ARMADO 3-3000E CRA.IZQ        0000322944
0004004C3000EI-3-RRA       CONJ ARMADO 3-3000E RRA.IZQ        0000306158
0004004KIT1600E-AU         KIT REPUES/CONVER UNIPO/BIVOL AMBAR0000069600
0004004KIT1600E-CU         KIT REPUES/CONVER UNIP/BIVOL CRISTA0000069600
0004004KIT1600E-RB         KIT REPUES/CONVER BIPOL/BIVOL ROJO 0000075400
00040050401L-A             LENTE PARA FARO 401 AMBAR          0000001466
00040050401L-AZ            LENTE PARA FARO 401 AZUL           0000001466
00040050401L-C             LENTE PARA FARO 401 CRISTAL        0000001466
00040050401L-O             LENTE PARA FARO 401 OPALINO        0000001466
00040050401L-R             LENTE PARA FARO 401 ROJO           0000001466
00040050401L-V             PARA FARO 0401 VERDE               0000001466
00040050480L               LENTE P/PLAFOND 480                0000006625
00040050500L               LENTE P/PLAFOND 500                0000009224
00040050506L               P/FARO 0506.(ROJO-AMBAR)           0000008361
00040050570L-A             PARA FARO 0570.AMBAR               0000002412
00040050570L-AZ            PARA FARO 0570.AZUL                0000002412
00040050570L-C             PARA FARO 0570.CRISTAL             0000002412
00040050570L-R             PARA FARO 0570.ROJO                0000002412
00040050570L-V             PARA FARO 0570.VERDE               0000002412
00040050580L-A             LENTE P/FARO 0580  AMBAR           0000001904
00040050580L-AZ            LENTE P/FARO 0580 AZUL             0000001904
00040050580L-C             LENTE P/FRO 0580 CRISTAL           0000001904
00040050580L-R             LENTE PARA FARO 0580  ROJO         0000001904
00040050580L-V             LENTE P/FARO 0580 VERDE            0000001904
00040050600/0602L-A        PARA FARO 0600 Y 0602.AMBAR        0000001398
00040050600/0602L-AZ       PARA FARO 0600 Y 0602. AZUL        0000001398
00040050600/0602L-C        PARA FARO 0600 Y 0602.CRISTAL      0000001398
00040050600/0602L-R        PARA FARO 0600 Y 0602.ROJO         0000001398
00040050600/0602L-V        PARA FARO 0600 Y 0602.VERDE        0000001398
00040050604L-C             PARA FARO 0604 CRISTAL             0000000719
00040050605L-C             ILUMINA PATENTE GRANDE             0000001612
00040050607L-A             PARA FARO 0607.AMBAR               0000001412
00040050607L-AZ            PARA FARO 0607 AZUL                0000001412
00040050607L-C             PARA FARO 0607.CRISTAL             0000001412
00040050607L-R             PARA FARO 0607.ROJO                0000001412
00040050607L-V             PARA FARO 0607.VERDE               0000001412
00040050634L-A             PARA FARO 0634 Y 0634S.AMBAR       0000001266
00040050634L-AZ            PARA FARO 0634 Y 0634S.AZUL        0000001266
00040050634L-C             PARA FARO 0634 Y 0634S.CRISTAL     0000001266
00040050634L-R             PARA FARO 0634 Y 0634S.ROJO        0000001266
00040050634L-V             PARA FARO 0634 Y 0634S.VERDE       0000001266
00040050750L-A             PARA FARO 0750 AMBAR               0000001577
00040050750L-AZ            LENTE PARA FARO 750 AZUL           0000001577
00040050750L-C             PARA FARO 0750 CRISTAL             0000001577
00040050750L-R             PARA FARO 0750 ROJO                0000001577
00040050750L-V             PARA FARO 0750 VERDE               0000001577
00040050800L-A             LENTE PARA FARO 0800 AMBAR         0000001999
00040050800L-AZ            LENTE P/FARO 0800 AZUL             0000001999
00040050800L-C             LENTE P/FARO 0800 CRISTAL          0000001999
00040050800L-R             LENTE P/FARO 0800 ROJO             0000001999
00040050800L-V             LENTE P/FARO 0800 VERDE            0000001999
00040050880L-A             PARA FARO 0880.AMBAR               0000002003
00040050880L-AZ            PARA FARO 0880.AZUL                0000002003
00040050880L-C             PARA FARO 0880.CRISTAL             0000002003
00040050880L-R             PARA FARO 0880.ROJO                0000002003
00040050880L-V             PARA FARO 0880.VERDE               0000002003
00040050900L-A             PARA FARO 0900.AMBAR               0000002459
00040050900L-R             PARA FARO 0900.ROJO                0000002459
00040051017L-A             PARA FARO 1017 Y 1017S.AMBAR       0000000668
00040051017L-AZ            P/FARO 1017 Y 1017S. AZUL          0000000668
00040051017L-C             PARA FARO 1017 Y 1017S.CRISTAL     0000000668
00040051017L-R             PARA FARO 1017 Y 1017S.ROJO        0000000668
00040051017L-V             PARA FARO 1017 Y 1017S.VERDE       0000000668
00040051021L-A             PARA FARO 1021 Y 1021FL.AMBAR      0000001199
00040051021L-AZ            PARA FARO 1021 Y 1021FL AZUL       0000001199
00040051021L-C             PARA FARO 1021 Y 1021FL.CRISTAL    0000001199
00040051021L-R             PARA FARO 1021 Y 1021FL.ROJO       0000001199
00040051021L-V             PARA FARO 1021 Y 1021FL.VERDE      0000001199
00040051030L-A             PARA FARO 1030.AMBAR               0000000443
00040051030L-AZ            LENTE PARA FARO 1030-AZ BAIML.     0000000443
00040051030L-C             PARA FARO 1030.CRISTAL             0000000443
00040051030L-R             PARA FARO 1030.ROJO                0000000443
00040051030L-V             PARA FARO 1030.VERDE               0000000443
00040051035EL-A            LENTE P/FARO ELECTRONICO 1035 AMBAR0000001266
00040051035EL-C            LENTE P/FARO ELECTRONICO 1035 CRIST0000001266
00040051035EL-R            LENTE P/FARO ELECTRONICO 1035 ROJO 0000001266
00040051035EL-V            LENTE P/FARO ELECTRONICO 1035 VERDE0000001266
00040051035L-A             LENTE P/FARO 1035                  0000001266
00040051035L-AZ            LENTE P/FARO 1035                  0000001266
00040051035L-C             LENTE PARA FARTO 1035 CRISTAL      0000001266
00040051035L-R             LENTE P/FARO 1035                  0000001266
00040051035L-V             LENTE P/FARO 1035                  0000001266
00040051037L-A             P/FARO 1037/1038/1039 AMBAR        0000001505
00040051037L-AZ            P/FARO 1037/1038/1039 AZUL         0000001505
00040051037L-C             P/FARO 1037/1038/1039 CRISTAL      0000001505
00040051037L-R             P/FARO 1037/1038/1039 ROJO         0000001505
00040051037L-V             P/FARO 1037/1038/1039 VERDE        0000001505
00040051038/39L-A          PARA FARO 1038/39 AMBAR            0000001505
00040051038/39L-C          PARA FARO 1038/39 CRISTAL          0000001505
00040051038/39L-R          PARA FARO 1038/39 ROJO             0000001505
00040051038/39L-V          PARA FARO 1038/39 VERDE            0000001505
00040051050/60L-A          PARA FARO 1050 Y 1060.AMBAR        0000002313
00040051050/60L-C          PARA FARO 1050 Y 1060.CRISTAL      0000002313
00040051050/60L-O          PARA FARO 1050 Y 1060.OPALINO      0000002313
00040051050/60L-R          PARA FARO 1050 Y 1060.ROJO         0000002313
00040051050/60L-V          PARA FARO 1050 Y 1060 VERDE        0000002313
00040051075L               COLOR ROJO PARA FARO 1075          0000005600
00040051080CH-A            LENTE CHICO P/FARO 1080            0000004454
00040051080CH-C            LENTE CHICO P/FARO 1080            0000004454
00040051080CH-R            LENTE CHICO P/FARO 1080            0000004454
00040051080CH-V            LENTE CHICO P/FARO 1080            0000004454
00040051080G-A             LENTE GDE P/FARO 1080              0000006326
00040051080G-C             LENTE GDE P/FARO 1080              0000006326
00040051080G-R             LENTE GDE P/FARO 1080              0000006326
00040051080G-V             LENTE GDE P/FARO 1080              0000006326
00040051090L-A             LAT RECTANGULAR P/FARO 1090.AMBAR  0000003735
00040051090L-C             LENTE GRANDE P/FARO 1090.CRISTAL   0000003735
00040051090L-R             LAT RECTANGULAR P/FARO 1090.ROJO   0000003735
00040051095CH-C            LENTE CRISTAL CHICO P/FARO 1095    0000003649
00040051095CH-R            LENTE ROJO CHICO P/FARO 1095.ROJO  0000003649
00040051095G-R             LENTE ROJO GRANDE P/FARO 1095      0000010811
00040051095ME-A            LENTE AMBAR MEDIANO P/FARO 1095    0000004665
00040051095ME-R            LENTE ROJO MEDIANO P/FARO 1095     0000004665
00040051100L-A             PARA FARO 1100.AMBAR               0000002964
00040051100L-AZ            PARA FARO 1100 AZUL                0000002964
00040051100L-C             PARA FARO 1100.CRISTAL             0000002964
00040051100L-R             PARA FARO 1100.ROJO                0000002964
00040051100L-V             PARA FARO 1100.VERDE               0000002964
00040051105/08L-A          PARA FARO 1105 Y 1108.AMBAR        0000001788
00040051105/08L-C          PARA FARO 1105 Y 1108.CRISTAL      0000001799
00040051105/08L-R          PARA FARO 1105 Y 1108.ROJO         0000001799
00040051105/08L-V          PARA FARO 1105 Y 1108.VERDE        0000001799
00040051110L               LENTE PARA FARO 1110               0000009982
00040051110LC/R            LENTE PARA FARO 1110 C/RETROCESO   0000009982
0004005113L                COMPLETO P/FARO T/SCANIA           0000015798
0004005113LV               COMPLETO P/FARO T/SCANIA C/VENTANA 0000017641
00040051200CH-A            PARA FARO 1200/15/30/50.AMBAR      0000002115
00040051200CH-AZ           PARA FARO 1200/15/30/50 AZUL       0000002115
00040051200CH-C            PARA FARO 1200/15/30/50.CRISTAL    0000002115
00040051200CH-O            PARA FARO 1200 15/30/50 OPALINO    0000002115
00040051200CH-R            PARA FARO 1200/15/30/50.ROJO       0000002115
00040051200CH-V            PARA FARO 1200/15/30/50.VERDE      0000002115
00040051200G-R             PARA FARO 1200.ROJO                0000016003
00040051200ME-A            PARA FARO 1200/15.AMBAR            0000004319
00040051200ME-C            PARA FARO 1200/15.CRISTAL          0000004319
00040051200ME-O            PARA FARO 1200/15/30/50 OPALINO    0000004319
00040051200ME-R            PARA FARO 1200/15.ROJO             0000004319
00040051200ME-V            PARA FARO 1200/15.VERDE            0000004319
00040051255L-A             PARA FARO 1255.AMBAR               0000001470
00040051255L-C             PARA FARO 1255.CRISTAL             0000001470
00040051255L-O             PARA FARO 1255 OPALINO             0000001470
00040051255L-R             PARA FARO 1255.ROJO                0000001470
00040051255L-V             PARA FARO 1255.VERDE               0000001470
00040051270L               LENTE FARO 1270                    0000002558
00040051300L               PLASTICO DEL FARO 1300             0000010697
00040051300LC/R            LENTE PARA FARO 1300 CON RET.      0000010697
00040051325L               PLASTICO DEL FARO 1325             0000004352
00040051400L-A             LENTE PARA FARO 1400 AMBAR         0000002658
00040051400L-AZ            LENTE PARA FARO 1400 AZUL          0000002658
00040051400L-C             LENTE PARA FARO 1400 CRISTAL       0000002658
00040051400L-R             LENTE PARA FARO 1400 ROJO          0000002658
00040051400L-V             LENTE PARA FARO 1400 VERDE         0000002658
00040051405L-A             LENTE FARO 1405 AMBAR              0000002463
00040051405L-AZ            LENTE FARO 1405 AZUL               0000002463
00040051405L-C             LENTE FARO 1405 CRISTAL            0000002463
00040051405L-R             LENTE FARO 1405 ROJO               0000002463
00040051405L-V             LENTE FARO 1405 VERDE              0000002463
00040051450L               PARA FARO 1450                     0000007015
00040051500L               LENTE PARA FARO 1500/1500V         0000018237
00040051500LC/R            LENTE P/FARO 1500 C/RET.           0000018237
00040051530L               LENTE FARO                         0000005537
00040051530LC/A            P/FARO 1530 AMBAR-CRISTAL          0000005537
00040051530LC/R            LENTE P/FARO 1530 C/RET.           0000005537
00040051580L               LENTE DEL FARO 1580                0000009247
00040051600L-A             LENTE DEL FARO 1600 AMBAR          0000003637
00040051600L-C             LENTE DEL FARO 1600 CRISTAL        0000003637
00040051600L-R             LENTE DEL FARO 1600 ROJO           0000003637
00040051600L-V             LENTE P/FARO 1600 VERDE            0000003637
00040051800L-A             Unidad sellada CUERPO/LENTE ambar  0000010407
00040051800L-C             UNIDAD SELLADA CUERPO LENTE CRISTAL0000010407
00040051800L-R             Unidad sellada CUERPO/LENTE ROJO   0000010407
00040051800L-V             Unidad sellada CUERPO/LENTE VERDE  0000010407
00040051810L-A             Unidad sellada Cuerpo/Lente xa 18100000007563
00040051810L-C             LENTE P/FARO 1810 CRISTAL          0000007563
00040051810L-R             Unid.sellada Cuerpo/Lente xa 1810 R0000007563
00040051820L-A             LENTE PARA FARO 1820 AMBAR         0000001603
00040051820L-C             LENTE PARA FARO 1820 CRISTAL       0000001603
00040051820L-R             LENTE PARA FARO 1820 ROJO          0000001603
00040051820L-V             LENTE PARA FARO 1820 VERDE         0000001603
00040051830L-A             LENTE FARO 1830 AMBAR              0000003315
00040051830L-C             LENTE PARA FARO 1830 CRISTAL       0000003315
00040051830L-R             LENTE FARO 1830 ROJO               0000003315
00040051840L-A             LENTE PARA FARO 1840 AMBAR         0000002380
00040051840L-R             LENTE PARA FARO 1840 ROJO          0000002380
00040051900L               PARA FARO 1900                     0000016539
00040054000L-A              LENTE FARO AMBULANCIA AMBAR       0000007955
00040054000L-AZ            LENTE FARO AMBULANCIA AZUL         0000007955
00040054000L-C             LENTE FARO AMBULANCIA CRISTAL      0000007955
00040054000L-R             LENTE FARO AMBULANCIA ROJO         0000007955
00040054000L-V             LENTE FARO AMBULANCIA VERDE        0000007955
00040064000B               BURLETE DE GOMA P/LENTE 4000       0000001176
0004006R 001               CHICOTE UNIPOLAR                   0000001148
0004006R 002               CHICOTE BIPOLAR                    0000001740
0004006R 003               PORTAFOCO                          0000002426
0004006R 004               PORTAFOCO CON CHICOTE BIPOLAR      0000003020
0004006R 007               PORTAFOCO BIPOLAR COMPLETO S.1600  0000007328
0004006R 007D              PORTALAMP.FARO 1600 DERECHO        0000007328
0004006R 007I              PORTALAMP.FARO 1600 IZQ.           0000007328
0004006R 010               PORTAFOCO UNIPOLAR SERIE 1800      0000004872
0004006R 011               PORTAFOCO BIPOLAR SERIE 1800       0000005598
0004006R 012               ARO GOMA SOPORTE FARO 1800         0000003688
0004006R 013               ARO GOMA SOPORTE FARO 1810         0000003347
0004006R 014               ARO SOPORTE FLEXIBLE ART. 1820     0000002744
0004006R 015               CHICOTE UNIPOL COMPL SERIE 1800    0000005208
0004006R 016               CHICOTE BIPOLAR COMPL SERIE 1800   0000007342
0004006R 017-2             PORTALAMP CHICO 2 CABLES P/0634    0000001306
0004006R 017-3             PORTALAMP CHICO 2 CABLES P/1035/4010000001306
0004006R 018               PORTAL.FARO 1035FL LAMP 2825 TODOS 0000002732
0004006R 022               ARO REDONDO ENVOLVENTE P/3000E     0000005194
0004006R 025-1             CONECTOR ELECTR.BIPOLAR C/3 CABLES 0000005447
0004007R 028-A             PLAQ ELECT PARA FARO 1035E AMBAR   0000013920
0004007R 028-C             PLAQ ELECT PARA FARO 1035E CRISTAL 0000015080
0004007R 028-R             PLAQ ELECT PARA FARO 1035E ROJA    0000013920
0004007R 028-V             PLAQ ELECT PARA FARO 1035E VERDE   0000015555
0004007R 029-A             PLAQ ELECT PARA FARO 1033E AMBAR   0000013316
0004007R 029-C             PLAQ ELECT PARA FARO 1033E CRISTAL 0000013757
0004007R 029-R             PLAQ ELECT PARA FARO 1033E ROJO    0000013316
0004007R 029-V             PLAQ ELECTR PARA FARO 1033E VERDE  0000014221
00050013M01                BANDA PERIM BLANCA 50mm X METRO    0000021971
00050013M02                BANDA PERIM AMARILLA 50mm X METRO  0000021971
00050013M03                BANDA PERIM ROJA 75mm X METRO      0000033082
00050013M04                BANDA CEBRADA 7,5cm X 50cm C/U     0000016541
00050013M05                CIRCULO VEL MAX 80 C/U             0000013662
00050013M06                CIRCULO VEL MAX 90 C/U             0000013662
00050013M07                CIRCULO VEL MAX 110 C/U            0000013662
00050013M08                BANDA PERIM BCA-ROJA 50mm x METRO  0000033082
00050013M09                PANEL NARANJA PRODUCTO NO CODIFICAD0000039974
00050013M10                CIRCULO VEL MAX 100 C/U            0000013662
00060013M01                BANDA PERIM BLANCA 50mm X METRO    0000021971
00060013M02                BANDA PERIM AMARILLA 50mm X METRO  0000021971
00060013M03                BANDA PERIM ROJA 75mm X METRO      0000033082
00060013M04                BANDA CEBRADA 7,5cm X 50cm C/U     0000016541
00060013M05                CIRCULO VEL MAX 80 C/U             0000013662
00060013M06                CIRCULO VEL MAX 90 C/U             0000013662
00060013M07                CIRCULO VEL MAX 110 C/U            0000013662
00060013M08                BANDA PERIM BCA-ROJA 50mm x METRO  0000033082
00060013M09                PANEL NARANJA PRODUCTO NO CODIFICAD0000039974
00060013M10                CIRCULO VEL MAX 100 C/U            0000013662
000700118007               CHEVETTE 1.4/1.6 BRASIL.SELL       0000055691
000700118010               MONZA / KADETT                     0000055691
0007001733                 400-CHEVY-OPEL K180-PICK-UP        0000051807
0007001810                 PICK-UP C10                        0000051807
000700218027               2CV                                0000042269
000700218028               3CV-MEHARI-AMI 8-IES               0000042269
000700319021               MAXION MB SPRINTER-L/ROVER-C/CEB   0000069821
000700319022               MOTORES MAXION S/CEB.MANUAL        0000067011
000700319025               MWM SPRINT.SILVERADO-F100-99>      0000057430
000700319026               MWM SPRINT.SILVERADO 98-99         0000057430
000700319040               CUMMINS ENTRA 1/4 Y SALE M14 X 1.5 0000068501
000700319041               CUMMINS ENTRADA Y SALIDA M14 X 1.5 0000068501
00070031962/5              BCD-DUCATO,DAILY.2.5 (ORIG)        0000079218
0007003620                 MWM 229.F100/1000/4000.92-96       0000071367
0007003630                 MWM 410 MA-T-TCA-410T              0000071367
0007003750                 PERK 6.305/357/358/340/288         0000068628
0007003751                 PERK 4.203                         0000068630
0007003752                 PERK 6.354                         0000068630
0007003753                 PERK 6.354 FASE 4.6 CIL.4 AGUJEROS 0000068630
0007003754                 PERK 3.152 C/VASO                  0000080677
0007003755                 PERK 4.236.CHEVR D20/40.4 AGUJEROS 0000065707
0007003757                 PERK 4-203/212/248 4 AGUJEROS      0000073897
0007003758                 PERK 4-236/238/248/236A/MF292 4AGUJ0000073897
000700418078               VW-FORD.1.8                        0000050275
000700418085               VW-FORD 83-91 MOT CHT              0000050275
000700418090               VW-FORD.MOTOR AUDI 1.6             0000050275
000700418093               VW-FORD.MOTOR AUDI 1.8/2.0         0000050275
000700418096               KOMBI - FUSCA                      0000052207
0007004642                 VALIANT-POLARA-PICK-UP D100        0000051648
0007004735                 VW-DODGE 1500/1800                 0000052650
000700518012               147-UNO-PREMIO.BRASIL              0000051370
000700518084               FIAT REGATTA 100S TODOS            0000048593
000700518092               LADA 1200/1400.NIVA.LAIKA          0000050645
000700518095               FIAT LADA (URSS) SAMARA 1300 S     0000050645
000700519020               TEMPRA-CROMA-REGATTA 2000          0000067661
0007005637                 600E,R-750/850                     0000046550
0007005638                 FIAT 1500/1600                     0000046550
0007005640                 FIAT 128                           0000046550
0007005730                 FIAT 125                           0000046550
0007005744                 128-147-DUNA-UNO.1.1/1.3           0000046550
0007005747                 FIAT 133-600S                      0000046550
0007005766                 REGATTA 85                         0000046550
0007005784                 RAGATTA 100S                       0000046550
0007005786                 147-DUNA-UNO-REG.M/TIPO 1.4/1.6    0000046550
000700618045               TAUNUS HASTA 77                    0000054052
000700618060               FORD TAUNUS 1978 -> 1980           0000054052
000700618079               SIERRA 1.6 GL                      0000055923
000700618080               SIERRA GHIA-XR4.2.3                0000055923
000700618081               FALCON-F100/150.6 CIL.86-88        0000055923
000700618091               SIERRA 2.3/2 CANOS                 0000055923
000700618098               F100/150 6 CIL 89> (3 CANOS)       0000055923
0007006645                 FORD TAUNUS ->1977                 0000052230
0007006646                 FALCON-F100/150 6 CIL.>80          0000052230
0007006741                 F100/350/600.V8                    0000090472
0007006760                 TAUNUS 78-80                       0000052230
0007006763                 TAUNUS 81-83.FALCON 4 CILINDROS    0000052230
0007006768                 FALCON-F100/150.6 CIL.81-86        0000052230
00070071706/5              BCD-INDENOR                        0000040729
0007007440                 INDENOR                            0000041644
000700818087               205-309-405 (XU)>ABR 92            0000049467
000700818088               205-309-405 (XU) MAY 92>           0000049467
0007008625                 403-404                            0000042759
0007008626                 504 1800cc                         0000042759
0007008762                 PEUGEOT 504 - 2000cc -             0000042759
0007008764                 505 >86                            0000042759
0007008783                 505 86-91 - 504 91>                0000042759
00070091778/5              BCD-DACIA                          0000041168
000700918065               R18/TRAFIC/FUEGO/21.2000cc         0000049388
000700918082               R9/19 1600cc.P/LARGA               0000049372
000700918089               R19 RT-CHAMADE.1600/1700cc         0000048674
00070091889/5              BCD-R4/6.84> P/LARGA               0000047720
00070091951/7              BCD-R18/FUEGO/TRAFIC/21.2000cc     0000047720
0007009600                 R12/18 1.4-82-83.P/CORTA           0000041991
0007009601                 R4/6 84>.P/LARGA                   0000041991
0007009602                 R12/18 1.4 82/85 P/LARGA           0000041991
0007009622                 DAUPHINE-GORDINI-4L.P/CORTA        0000041991
0007009623                 R6/4S.P/CORTA                      0000041991
0007009624                 R12 >80.P/CORTA                    0000041991
0007009629                 TORNADO 4 BANCADAS                 0000054116
0007009634                 JEEP-ESTANCIERA.CONTIN 4/6 CIL     0000084432
0007009739                 IKA TORINO 7 BANCADAS              0000055164
0007009756                 R12 1.4 CON A/AC.P/CORTA           0000041991
0007009771                 R18/TRAFIC 1.4.C/RET.P/CORTA       0000041991
0007009772                 R12 81-84 C/RET.P/CORTA            0000041991
0007009773                 R9/12/18 87>.6.35mm.P/LARGA        0000041991
0007009774                 R12/TRAFIC 1.4.>86.P/LARGA         0000041991
0007009782                 R9/11/12/18/19.1.4.87>.8mm.P/LARGA 0000041991
0007009789                 R11 C/RET.6.35mm.P/LARGA           0000041991
0007009794                 R-12 TRAFIC 1600cc 92-> P.LARGA    0000041991
00080013016                UNIVERSAL NAFTA PICO FINO-GRUESO   0000004239
000800133-2128             VW BORA TODOS                      0000258104
000800133-2423             CHRYSLER JOURNEY                   0000218834
000800133-2813             PEUGEOT 206 1.6 16v                0000172788
000800133-2830             VW FOX 1.6 2009->                  0000224994
000800133-2865             VW VENTO 2.0T - TDI                0000199584
000800133-2955             FORD FIESTA KINETIC                0000203742
000800133-2966             CHEVROLET CRUZE 2.0 DIESEL         0000232078
000800133-2983             VW AMAROK                          0000227766
0008002E-0662              FORD RANGER                        0000259028
0008002E-2296              TOYOTA HILUX 2009->                0000278432
0008002E-2993              FORD FOCUS 2.0 2010->              0000253330
000800357S-4000            FORD FOCUS 2.0 2010->              0000820974
000800363-1568             DODGE RAM 2500 6.7L                0001102640
000800369-3530TS           FORD FIESTA KINETIC                0001341186
000800369-9503TFK          VW VENTO 2.0Tsi 2010->             0001477168
000800377-1561KP           DODGE RAM 1500 5.7L                0001752982
000800377-1566KP           JEEP WRANGLER 3.6                  0001571416
0008004RR-2801             2,75" BI-CONICO                    0000423962
0008004RU-4960             2,75" CONICO                       0000210980
000800599-5050             KIT LIMPIEZA ATOMIZADOR            0000069762
0009001LS0836              CLIO RN R19,RE Y RN MOT 1.6 RNi RT 0000005500
0009001LS218               SCENIC MEGANE.RT RXE KANGOO RN     0000004900
0009001UHE601/4            ELEMENTO DE ACEITE                 0000003139
0009001UO141               TOYOTA 1.8D-4WD-WAGON 2.0          0000021068
0009001UO161               TOYOTA TOYOACE-DINA (MOTOR 1W)     0000016007
0009001UO215               NISSAN VAN-PATHFINDER 4WD-1.8 TODOS0000007465
0009001UO221               NISSAN 720D 1.8 PATROL LD20 ED30   0000007532
0009001UO351               MONTERO INTERCOOLER,CANTER 93/95   0000020447
0009001UO490               MAZDA 2000                         0000008722
0009001UO532               ISUZU LUV.NAFTERA                  0000006623
0009001UO570               HONDA LEGEN NSX 3.0                0000008985
0009001UO752               MAZDA BY PASS                      0000019746
0009001UOC021130/1         VW.PASSAT C/MOT.1.9 TURBODIESEL    0000006819
0009001UOC02712/43         FORD KA,FIESTA 1.3i 96 EN ADEL.    0000004713
0009001UOC02719/26         FIAT MAREA MOTOR 2.0 Mpi           0000004152
0009001UOC02724/4          FIAT DUCATO 1.9 DIESEL 96->        0000007307
0009001UOC02815/80         R9/11/12/18/TRAFIC 1400 Y 1600/CLIO0000004395
0009001UOC02830            SEAT CBA.CLX,1.9 T.DIESEL 98->     0000008319
0009001UOC02840            CITROEN XN,3.0i,BOXER 1.9,605 3.0i 0000007073
0009001UOC02916/2          ESCORT,R.ROVER,DICOVERY,CARAVAN.   0000004103
0009001UOC02921/4          ROVER 220,420,MOT.2.0i PERKINS     0000007073
0009001UOC02927/1          M.BENZ,SPRINTER,2.5,F100,2.5i 96-> 0000008000
0009001UOC02932            R.EXPRESS Y CLIO MOT.1.9 DIESEL    0000004374
0009001UOC211102/4         VOLVO NL10 INTERCOOLER,NL12        0000014613
0009001UOC21126            DUNA SDV/SIENA/UNO/125/128         0000004806
0009001UOC21142/1          FIAT CAM 120-130-150               0000011008
0009001UOC21168/5          M.BENZ 710,LN914,L914 INTERN.TURBO 0000009274
0009001UOC2712/12          CHEVETTE 1.4-1.6-LUMINA V6         0000003252
0009001UOC2712/22          CHEVR BRAS NAFT.OPEL ASTRA-VECTRA  0000004524
0009001UOC2713/16          CITR IMP-PALIO SIENA TD-504 505    0000004170
0009001UOC2915/9           ESCORT SIERRA 1.6                  0000006401
0009001UOC2920/7           SCANIA TODOS                       0000004956
0009001UOC2931             FIAT 1500 y 1600                   0000004302
0009001UOC2934             CHEVR y FORD MOT MAXION y PERKINS  0000005921
0009001UOC2936/8           CHEVR 4 y 6 cil.TODOS              0000005622
0009001UOC2940/18          FORD MWM 229-4.4 cil               0000007156
0009001UOC2962             FORD MWM 229-6.6 cil.DEUTZ         0000008094
0009002A0206               SUBARU LEGACY 1.8                  0000020758
0009002A0304               MITSUBISHI LANCER 1.3/1.5/1.6/2.0  0000020597
0009002A0309               MITSUBISHI ECLIPSE 96/98.LANCER16000000038468
0009002A0326-1             MITSUBISHI CANTER DESDE 1996       0000019371
0009002A0407V              MAZDA MX3 INYECCION                0000030431
0009002A0445S              MAZDA B2200,E2220                  0000020795
0009002A0915               SUZUKI VITARA 3 PUERTAS            0000013338
0009002A0936               SUZUKI BALENO 95 EN ADELANTE       0000020607
0009002A2101               CHEVROLET NPR (mot isuzu 4.8 )     0000056759
0009002A2400               KIA CERES 2.2 D 90->               0000017791
0009002CAF2010             FIAT 133/IAVA/147C/147GL           0000002025
0009002CAF2020             R12,R12TL,GTL HASTA 82             0000003252
0009002CAF2024T            TRAFIC,RODEO,R18GTD,R21 NEV.DIESEL 0000007297
0009002CAF2035             SIERRA 2.3                         0000004554
0009002CAF2038             TEMPRA                             0000004948
0009002CAF2072             DUNA SD Y SDL,FIORINO DIESL,147    0000003525
0009002CAF2074             PEUGEOT 505 SRD MOT.2.2 INYECCION  0000003710
0009002CAF2077             PEUGEOT 504 PICK-UP DIESEL         0000011096
0009002CAF2081             F100 (MOTOR 3.6)                   0000007365
0009002CAF2083             PATHFINDER                         0000011659
0009002CAF2095             PEUGEOT 106 XT,205 SXI,306 XS M.1.60000005333
0009002CAF2247             TOYOTA HILUX LANDCRUIZER           0000017791
0009002CAF2249             TROOPER 3.1 TURBO DIESEL           0000017324
0009002CAF2346             FORD RANGER PICK UP (CONO.DIA.EXT  0000011540
0009002CAF5139             BLAZER 2.2i 97 ADEL.S10 2.2MPFI 98 0000018449
0009002CAF5180             CLIO EXPRESS MOD.NUEVO             0000011425
0009002CAF5211             MITSUBISHI CANTER N OR.ME 017242   0000029588
0009002CAF813V             SUBARU JUSTY                       0000006081
0009002PAF0034             FIAT PUNTO 90 C/MOT 1.6 MPi        0000010856
0009002PAF0037             VW GOLF.ESCARABAJO.ESCORT 1.6      0000007156
0009002PAF0058             CHEVR BLAZER                       0000007055
0009002PAF0071             F100-F150 U.S.A.                   0000007232
0009002PAF0075             FORD KA                            0000006669
0009002PAF0100             CHEVR LUMINA                       0000006904
0009002PAF0107             CITROEN XANTIA                     0000007018
0009002PAF0111             FIAT UNO 45/60 1.6i/1.8i           0000004422
0009002PAF0116             RENAULT TRAFFIC NAC-OPEL KADETTE   0000007860
0009002PAF0137             VW GOLF 1.8GL-2.0GTI 16v-1.9 DIESEL0000007934
0009002PAF0147             RENAULT LAGUNA 1.8/2.0i            0000006389
0009002PAF0155             VECTRA GL-GLS-CD (BRASIL)          0000007579
0009002PAF2296             GALAXY-ORION-P405                  0000004562
0009002PAF2300             VW GOLF Y PASSAT                   0000009832
0009002PAF2337             FORD EXPLORER y RANGER             0000010487
0009002PAF2343             FILTRO AIRE TIPO PANEL             0000011118
0009002PAF2354             F.MAREA 1.6 MPI 16V 2.0MPI 20V     0000010212
0009002UAM27798            FORD CARGO F1722,MIXER,VW CUMMINS  0000055288
0009002UAM4080             TOYOTA HILUX LANCRUISER IND.ARGENT.0000018255
0009003FC0407              HYUNDAI,ISUZU,KIA,MAZDA            0000019891
0009003FC0702              CHEVROLET NPR 99-> MOT.4.8         0000015581
0009003IFF8050             FIAT-LANCIA-CHEVR-OPEL-ISUZU       0000011428
0009003IFF8050P            FIAT,OPEL,ISUZU DE PLASTICO        0000008985
0009003IFF8060             PEUGEOT-ALFA ROMEO-                0000025516
0009003IFF8100             PEUGEOT-SAAB-VOLVO                 0000028328
0009003IFF8110             SEAT                               0000033046
0009003IFF8130             ISUZU-NISSAN                       0000015844
0009003IFF8170             EXPLORER-RANGER-F100 U.S.A.        0000013890
